{
	"operators.sol": {
		"operators": {
			"abi": [
				{
					"inputs": [],
					"name": "add",
					"outputs": [],
					"stateMutability": "nonpayable",
					"type": "function"
				},
				{
					"inputs": [],
					"name": "decrement",
					"outputs": [],
					"stateMutability": "nonpayable",
					"type": "function"
				},
				{
					"inputs": [],
					"name": "div",
					"outputs": [],
					"stateMutability": "nonpayable",
					"type": "function"
				},
				{
					"inputs": [],
					"name": "increment",
					"outputs": [],
					"stateMutability": "nonpayable",
					"type": "function"
				},
				{
					"inputs": [],
					"name": "mod",
					"outputs": [],
					"stateMutability": "nonpayable",
					"type": "function"
				},
				{
					"inputs": [],
					"name": "mult",
					"outputs": [],
					"stateMutability": "nonpayable",
					"type": "function"
				},
				{
					"inputs": [],
					"name": "sub",
					"outputs": [],
					"stateMutability": "nonpayable",
					"type": "function"
				},
				{
					"inputs": [],
					"name": "val",
					"outputs": [
						{
							"internalType": "uint256",
							"name": "",
							"type": "uint256"
						}
					],
					"stateMutability": "view",
					"type": "function"
				}
			],
			"devdoc": {
				"kind": "dev",
				"methods": {},
				"version": 1
			},
			"evm": {
				"assembly": "    /* \"operators.sol\":70:551  contract operators {... */\n  mstore(0x40, 0x80)\n    /* \"operators.sol\":114:115  4 */\n  0x04\n    /* \"operators.sol\":96:115  uint public val = 4 */\n  0x00\n  sstore\n    /* \"operators.sol\":70:551  contract operators {... */\n  callvalue\n  dup1\n  iszero\n  tag_1\n  jumpi\n  0x00\n  dup1\n  revert\ntag_1:\n  pop\n  dataSize(sub_0)\n  dup1\n  dataOffset(sub_0)\n  0x00\n  codecopy\n  0x00\n  return\nstop\n\nsub_0: assembly {\n        /* \"operators.sol\":70:551  contract operators {... */\n      mstore(0x40, 0x80)\n      callvalue\n      dup1\n      iszero\n      tag_1\n      jumpi\n      0x00\n      dup1\n      revert\n    tag_1:\n      pop\n      jumpi(tag_2, lt(calldatasize, 0x04))\n      shr(0xe0, calldataload(0x00))\n      dup1\n      0xc54124be\n      gt\n      tag_11\n      jumpi\n      dup1\n      0xc54124be\n      eq\n      tag_7\n      jumpi\n      dup1\n      0xd09de08a\n      eq\n      tag_8\n      jumpi\n      dup1\n      0xe879a13e\n      eq\n      tag_9\n      jumpi\n      dup1\n      0xf9fa48c3\n      eq\n      tag_10\n      jumpi\n      jump(tag_2)\n    tag_11:\n      dup1\n      0x2986e054\n      eq\n      tag_3\n      jumpi\n      dup1\n      0x2baeceb7\n      eq\n      tag_4\n      jumpi\n      dup1\n      0x3c6bb436\n      eq\n      tag_5\n      jumpi\n      dup1\n      0x4f2be91f\n      eq\n      tag_6\n      jumpi\n    tag_2:\n      0x00\n      dup1\n      revert\n        /* \"operators.sol\":373:428  function mod() public {... */\n    tag_3:\n      tag_12\n      tag_13\n      jump\t// in\n    tag_12:\n      stop\n        /* \"operators.sol\":496:548  function decrement() public {... */\n    tag_4:\n      tag_14\n      tag_15\n      jump\t// in\n    tag_14:\n      stop\n        /* \"operators.sol\":96:115  uint public val = 4 */\n    tag_5:\n      tag_16\n      tag_17\n      jump\t// in\n    tag_16:\n      mload(0x40)\n      tag_18\n      swap2\n      swap1\n      tag_19\n      jump\t// in\n    tag_18:\n      mload(0x40)\n      dup1\n      swap2\n      sub\n      swap1\n      return\n        /* \"operators.sol\":124:178  function add() public {... */\n    tag_6:\n      tag_20\n      tag_21\n      jump\t// in\n    tag_20:\n      stop\n        /* \"operators.sol\":186:240  function sub() public {... */\n    tag_7:\n      tag_22\n      tag_23\n      jump\t// in\n    tag_22:\n      stop\n        /* \"operators.sol\":436:488  function increment() public {... */\n    tag_8:\n      tag_24\n      tag_25\n      jump\t// in\n    tag_24:\n      stop\n        /* \"operators.sol\":248:303  function mult() public {... */\n    tag_9:\n      tag_26\n      tag_27\n      jump\t// in\n    tag_26:\n      stop\n        /* \"operators.sol\":311:365  function div() public {... */\n    tag_10:\n      tag_28\n      tag_29\n      jump\t// in\n    tag_28:\n      stop\n        /* \"operators.sol\":373:428  function mod() public {... */\n    tag_13:\n        /* \"operators.sol\":418:420  10 */\n      0x0a\n        /* \"operators.sol\":412:415  val */\n      sload(0x00)\n        /* \"operators.sol\":412:420  val % 10 */\n      tag_31\n      swap2\n      swap1\n      tag_32\n      jump\t// in\n    tag_31:\n        /* \"operators.sol\":406:409  val */\n      0x00\n        /* \"operators.sol\":406:420  val = val % 10 */\n      dup2\n      swap1\n      sstore\n      pop\n        /* \"operators.sol\":373:428  function mod() public {... */\n      jump\t// out\n        /* \"operators.sol\":496:548  function decrement() public {... */\n    tag_15:\n        /* \"operators.sol\":535:538  val */\n      0x00\n      dup1\n        /* \"operators.sol\":535:540  val-- */\n      dup2\n      sload\n      dup1\n      swap3\n      swap2\n      swap1\n      tag_34\n      swap1\n      tag_35\n      jump\t// in\n    tag_34:\n      swap2\n      swap1\n      pop\n      sstore\n      pop\n        /* \"operators.sol\":496:548  function decrement() public {... */\n      jump\t// out\n        /* \"operators.sol\":96:115  uint public val = 4 */\n    tag_17:\n      sload(0x00)\n      dup2\n      jump\t// out\n        /* \"operators.sol\":124:178  function add() public {... */\n    tag_21:\n        /* \"operators.sol\":169:170  2 */\n      0x02\n        /* \"operators.sol\":163:166  val */\n      sload(0x00)\n        /* \"operators.sol\":163:170  val + 2 */\n      tag_37\n      swap2\n      swap1\n      tag_38\n      jump\t// in\n    tag_37:\n        /* \"operators.sol\":157:160  val */\n      0x00\n        /* \"operators.sol\":157:170  val = val + 2 */\n      dup2\n      swap1\n      sstore\n      pop\n        /* \"operators.sol\":124:178  function add() public {... */\n      jump\t// out\n        /* \"operators.sol\":186:240  function sub() public {... */\n    tag_23:\n        /* \"operators.sol\":231:232  2 */\n      0x02\n        /* \"operators.sol\":225:228  val */\n      sload(0x00)\n        /* \"operators.sol\":225:232  val - 2 */\n      tag_40\n      swap2\n      swap1\n      tag_41\n      jump\t// in\n    tag_40:\n        /* \"operators.sol\":219:222  val */\n      0x00\n        /* \"operators.sol\":219:232  val = val - 2 */\n      dup2\n      swap1\n      sstore\n      pop\n        /* \"operators.sol\":186:240  function sub() public {... */\n      jump\t// out\n        /* \"operators.sol\":436:488  function increment() public {... */\n    tag_25:\n        /* \"operators.sol\":475:478  val */\n      0x00\n      dup1\n        /* \"operators.sol\":475:480  val++ */\n      dup2\n      sload\n      dup1\n      swap3\n      swap2\n      swap1\n      tag_43\n      swap1\n      tag_44\n      jump\t// in\n    tag_43:\n      swap2\n      swap1\n      pop\n      sstore\n      pop\n        /* \"operators.sol\":436:488  function increment() public {... */\n      jump\t// out\n        /* \"operators.sol\":248:303  function mult() public {... */\n    tag_27:\n        /* \"operators.sol\":294:295  2 */\n      0x02\n        /* \"operators.sol\":288:291  val */\n      sload(0x00)\n        /* \"operators.sol\":288:295  val * 2 */\n      tag_46\n      swap2\n      swap1\n      tag_47\n      jump\t// in\n    tag_46:\n        /* \"operators.sol\":282:285  val */\n      0x00\n        /* \"operators.sol\":282:295  val = val * 2 */\n      dup2\n      swap1\n      sstore\n      pop\n        /* \"operators.sol\":248:303  function mult() public {... */\n      jump\t// out\n        /* \"operators.sol\":311:365  function div() public {... */\n    tag_29:\n        /* \"operators.sol\":356:357  2 */\n      0x02\n        /* \"operators.sol\":350:353  val */\n      sload(0x00)\n        /* \"operators.sol\":350:357  val / 2 */\n      tag_49\n      swap2\n      swap1\n      tag_50\n      jump\t// in\n    tag_49:\n        /* \"operators.sol\":344:347  val */\n      0x00\n        /* \"operators.sol\":344:357  val = val / 2 */\n      dup2\n      swap1\n      sstore\n      pop\n        /* \"operators.sol\":311:365  function div() public {... */\n      jump\t// out\n        /* \"#utility.yul\":7:84   */\n    tag_51:\n        /* \"#utility.yul\":44:51   */\n      0x00\n        /* \"#utility.yul\":73:78   */\n      dup2\n        /* \"#utility.yul\":62:78   */\n      swap1\n      pop\n        /* \"#utility.yul\":7:84   */\n      swap2\n      swap1\n      pop\n      jump\t// out\n        /* \"#utility.yul\":90:208   */\n    tag_52:\n        /* \"#utility.yul\":177:201   */\n      tag_58\n        /* \"#utility.yul\":195:200   */\n      dup2\n        /* \"#utility.yul\":177:201   */\n      tag_51\n      jump\t// in\n    tag_58:\n        /* \"#utility.yul\":172:175   */\n      dup3\n        /* \"#utility.yul\":165:202   */\n      mstore\n        /* \"#utility.yul\":90:208   */\n      pop\n      pop\n      jump\t// out\n        /* \"#utility.yul\":214:436   */\n    tag_19:\n        /* \"#utility.yul\":307:311   */\n      0x00\n        /* \"#utility.yul\":345:347   */\n      0x20\n        /* \"#utility.yul\":334:343   */\n      dup3\n        /* \"#utility.yul\":330:348   */\n      add\n        /* \"#utility.yul\":322:348   */\n      swap1\n      pop\n        /* \"#utility.yul\":358:429   */\n      tag_60\n        /* \"#utility.yul\":426:427   */\n      0x00\n        /* \"#utility.yul\":415:424   */\n      dup4\n        /* \"#utility.yul\":411:428   */\n      add\n        /* \"#utility.yul\":402:408   */\n      dup5\n        /* \"#utility.yul\":358:429   */\n      tag_52\n      jump\t// in\n    tag_60:\n        /* \"#utility.yul\":214:436   */\n      swap3\n      swap2\n      pop\n      pop\n      jump\t// out\n        /* \"#utility.yul\":442:622   */\n    tag_53:\n        /* \"#utility.yul\":490:567   */\n      0x4e487b7100000000000000000000000000000000000000000000000000000000\n        /* \"#utility.yul\":487:488   */\n      0x00\n        /* \"#utility.yul\":480:568   */\n      mstore\n        /* \"#utility.yul\":587:591   */\n      0x12\n        /* \"#utility.yul\":584:585   */\n      0x04\n        /* \"#utility.yul\":577:592   */\n      mstore\n        /* \"#utility.yul\":611:615   */\n      0x24\n        /* \"#utility.yul\":608:609   */\n      0x00\n        /* \"#utility.yul\":601:616   */\n      revert\n        /* \"#utility.yul\":628:804   */\n    tag_32:\n        /* \"#utility.yul\":660:661   */\n      0x00\n        /* \"#utility.yul\":677:697   */\n      tag_63\n        /* \"#utility.yul\":695:696   */\n      dup3\n        /* \"#utility.yul\":677:697   */\n      tag_51\n      jump\t// in\n    tag_63:\n        /* \"#utility.yul\":672:697   */\n      swap2\n      pop\n        /* \"#utility.yul\":711:731   */\n      tag_64\n        /* \"#utility.yul\":729:730   */\n      dup4\n        /* \"#utility.yul\":711:731   */\n      tag_51\n      jump\t// in\n    tag_64:\n        /* \"#utility.yul\":706:731   */\n      swap3\n      pop\n        /* \"#utility.yul\":750:751   */\n      dup3\n        /* \"#utility.yul\":740:775   */\n      tag_65\n      jumpi\n        /* \"#utility.yul\":755:773   */\n      tag_66\n      tag_53\n      jump\t// in\n    tag_66:\n        /* \"#utility.yul\":740:775   */\n    tag_65:\n        /* \"#utility.yul\":796:797   */\n      dup3\n        /* \"#utility.yul\":793:794   */\n      dup3\n        /* \"#utility.yul\":789:798   */\n      mod\n        /* \"#utility.yul\":784:798   */\n      swap1\n      pop\n        /* \"#utility.yul\":628:804   */\n      swap3\n      swap2\n      pop\n      pop\n      jump\t// out\n        /* \"#utility.yul\":810:990   */\n    tag_54:\n        /* \"#utility.yul\":858:935   */\n      0x4e487b7100000000000000000000000000000000000000000000000000000000\n        /* \"#utility.yul\":855:856   */\n      0x00\n        /* \"#utility.yul\":848:936   */\n      mstore\n        /* \"#utility.yul\":955:959   */\n      0x11\n        /* \"#utility.yul\":952:953   */\n      0x04\n        /* \"#utility.yul\":945:960   */\n      mstore\n        /* \"#utility.yul\":979:983   */\n      0x24\n        /* \"#utility.yul\":976:977   */\n      0x00\n        /* \"#utility.yul\":969:984   */\n      revert\n        /* \"#utility.yul\":996:1167   */\n    tag_35:\n        /* \"#utility.yul\":1035:1038   */\n      0x00\n        /* \"#utility.yul\":1058:1082   */\n      tag_69\n        /* \"#utility.yul\":1076:1081   */\n      dup3\n        /* \"#utility.yul\":1058:1082   */\n      tag_51\n      jump\t// in\n    tag_69:\n        /* \"#utility.yul\":1049:1082   */\n      swap2\n      pop\n        /* \"#utility.yul\":1104:1108   */\n      0x00\n        /* \"#utility.yul\":1097:1102   */\n      dup3\n        /* \"#utility.yul\":1094:1109   */\n      sub\n        /* \"#utility.yul\":1091:1132   */\n      tag_70\n      jumpi\n        /* \"#utility.yul\":1112:1130   */\n      tag_71\n      tag_54\n      jump\t// in\n    tag_71:\n        /* \"#utility.yul\":1091:1132   */\n    tag_70:\n        /* \"#utility.yul\":1159:1160   */\n      0x01\n        /* \"#utility.yul\":1152:1157   */\n      dup3\n        /* \"#utility.yul\":1148:1161   */\n      sub\n        /* \"#utility.yul\":1141:1161   */\n      swap1\n      pop\n        /* \"#utility.yul\":996:1167   */\n      swap2\n      swap1\n      pop\n      jump\t// out\n        /* \"#utility.yul\":1173:1364   */\n    tag_38:\n        /* \"#utility.yul\":1213:1216   */\n      0x00\n        /* \"#utility.yul\":1232:1252   */\n      tag_73\n        /* \"#utility.yul\":1250:1251   */\n      dup3\n        /* \"#utility.yul\":1232:1252   */\n      tag_51\n      jump\t// in\n    tag_73:\n        /* \"#utility.yul\":1227:1252   */\n      swap2\n      pop\n        /* \"#utility.yul\":1266:1286   */\n      tag_74\n        /* \"#utility.yul\":1284:1285   */\n      dup4\n        /* \"#utility.yul\":1266:1286   */\n      tag_51\n      jump\t// in\n    tag_74:\n        /* \"#utility.yul\":1261:1286   */\n      swap3\n      pop\n        /* \"#utility.yul\":1309:1310   */\n      dup3\n        /* \"#utility.yul\":1306:1307   */\n      dup3\n        /* \"#utility.yul\":1302:1311   */\n      add\n        /* \"#utility.yul\":1295:1311   */\n      swap1\n      pop\n        /* \"#utility.yul\":1330:1333   */\n      dup1\n        /* \"#utility.yul\":1327:1328   */\n      dup3\n        /* \"#utility.yul\":1324:1334   */\n      gt\n        /* \"#utility.yul\":1321:1357   */\n      iszero\n      tag_75\n      jumpi\n        /* \"#utility.yul\":1337:1355   */\n      tag_76\n      tag_54\n      jump\t// in\n    tag_76:\n        /* \"#utility.yul\":1321:1357   */\n    tag_75:\n        /* \"#utility.yul\":1173:1364   */\n      swap3\n      swap2\n      pop\n      pop\n      jump\t// out\n        /* \"#utility.yul\":1370:1564   */\n    tag_41:\n        /* \"#utility.yul\":1410:1414   */\n      0x00\n        /* \"#utility.yul\":1430:1450   */\n      tag_78\n        /* \"#utility.yul\":1448:1449   */\n      dup3\n        /* \"#utility.yul\":1430:1450   */\n      tag_51\n      jump\t// in\n    tag_78:\n        /* \"#utility.yul\":1425:1450   */\n      swap2\n      pop\n        /* \"#utility.yul\":1464:1484   */\n      tag_79\n        /* \"#utility.yul\":1482:1483   */\n      dup4\n        /* \"#utility.yul\":1464:1484   */\n      tag_51\n      jump\t// in\n    tag_79:\n        /* \"#utility.yul\":1459:1484   */\n      swap3\n      pop\n        /* \"#utility.yul\":1508:1509   */\n      dup3\n        /* \"#utility.yul\":1505:1506   */\n      dup3\n        /* \"#utility.yul\":1501:1510   */\n      sub\n        /* \"#utility.yul\":1493:1510   */\n      swap1\n      pop\n        /* \"#utility.yul\":1532:1533   */\n      dup2\n        /* \"#utility.yul\":1526:1530   */\n      dup2\n        /* \"#utility.yul\":1523:1534   */\n      gt\n        /* \"#utility.yul\":1520:1557   */\n      iszero\n      tag_80\n      jumpi\n        /* \"#utility.yul\":1537:1555   */\n      tag_81\n      tag_54\n      jump\t// in\n    tag_81:\n        /* \"#utility.yul\":1520:1557   */\n    tag_80:\n        /* \"#utility.yul\":1370:1564   */\n      swap3\n      swap2\n      pop\n      pop\n      jump\t// out\n        /* \"#utility.yul\":1570:1803   */\n    tag_44:\n        /* \"#utility.yul\":1609:1612   */\n      0x00\n        /* \"#utility.yul\":1632:1656   */\n      tag_83\n        /* \"#utility.yul\":1650:1655   */\n      dup3\n        /* \"#utility.yul\":1632:1656   */\n      tag_51\n      jump\t// in\n    tag_83:\n        /* \"#utility.yul\":1623:1656   */\n      swap2\n      pop\n        /* \"#utility.yul\":1678:1744   */\n      0xffffffffffffffffffffffffffffffffffffffffffffffffffffffffffffffff\n        /* \"#utility.yul\":1671:1676   */\n      dup3\n        /* \"#utility.yul\":1668:1745   */\n      sub\n        /* \"#utility.yul\":1665:1768   */\n      tag_84\n      jumpi\n        /* \"#utility.yul\":1748:1766   */\n      tag_85\n      tag_54\n      jump\t// in\n    tag_85:\n        /* \"#utility.yul\":1665:1768   */\n    tag_84:\n        /* \"#utility.yul\":1795:1796   */\n      0x01\n        /* \"#utility.yul\":1788:1793   */\n      dup3\n        /* \"#utility.yul\":1784:1797   */\n      add\n        /* \"#utility.yul\":1777:1797   */\n      swap1\n      pop\n        /* \"#utility.yul\":1570:1803   */\n      swap2\n      swap1\n      pop\n      jump\t// out\n        /* \"#utility.yul\":1809:2219   */\n    tag_47:\n        /* \"#utility.yul\":1849:1856   */\n      0x00\n        /* \"#utility.yul\":1872:1892   */\n      tag_87\n        /* \"#utility.yul\":1890:1891   */\n      dup3\n        /* \"#utility.yul\":1872:1892   */\n      tag_51\n      jump\t// in\n    tag_87:\n        /* \"#utility.yul\":1867:1892   */\n      swap2\n      pop\n        /* \"#utility.yul\":1906:1926   */\n      tag_88\n        /* \"#utility.yul\":1924:1925   */\n      dup4\n        /* \"#utility.yul\":1906:1926   */\n      tag_51\n      jump\t// in\n    tag_88:\n        /* \"#utility.yul\":1901:1926   */\n      swap3\n      pop\n        /* \"#utility.yul\":1961:1962   */\n      dup3\n        /* \"#utility.yul\":1958:1959   */\n      dup3\n        /* \"#utility.yul\":1954:1963   */\n      mul\n        /* \"#utility.yul\":1983:2013   */\n      tag_89\n        /* \"#utility.yul\":2001:2012   */\n      dup2\n        /* \"#utility.yul\":1983:2013   */\n      tag_51\n      jump\t// in\n    tag_89:\n        /* \"#utility.yul\":1972:2013   */\n      swap2\n      pop\n        /* \"#utility.yul\":2162:2163   */\n      dup3\n        /* \"#utility.yul\":2153:2160   */\n      dup3\n        /* \"#utility.yul\":2149:2164   */\n      div\n        /* \"#utility.yul\":2146:2147   */\n      dup5\n        /* \"#utility.yul\":2143:2165   */\n      eq\n        /* \"#utility.yul\":2123:2124   */\n      dup4\n        /* \"#utility.yul\":2116:2125   */\n      iszero\n        /* \"#utility.yul\":2096:2179   */\n      or\n        /* \"#utility.yul\":2073:2212   */\n      tag_90\n      jumpi\n        /* \"#utility.yul\":2192:2210   */\n      tag_91\n      tag_54\n      jump\t// in\n    tag_91:\n        /* \"#utility.yul\":2073:2212   */\n    tag_90:\n        /* \"#utility.yul\":1857:2219   */\n      pop\n        /* \"#utility.yul\":1809:2219   */\n      swap3\n      swap2\n      pop\n      pop\n      jump\t// out\n        /* \"#utility.yul\":2225:2410   */\n    tag_50:\n        /* \"#utility.yul\":2265:2266   */\n      0x00\n        /* \"#utility.yul\":2282:2302   */\n      tag_93\n        /* \"#utility.yul\":2300:2301   */\n      dup3\n        /* \"#utility.yul\":2282:2302   */\n      tag_51\n      jump\t// in\n    tag_93:\n        /* \"#utility.yul\":2277:2302   */\n      swap2\n      pop\n        /* \"#utility.yul\":2316:2336   */\n      tag_94\n        /* \"#utility.yul\":2334:2335   */\n      dup4\n        /* \"#utility.yul\":2316:2336   */\n      tag_51\n      jump\t// in\n    tag_94:\n        /* \"#utility.yul\":2311:2336   */\n      swap3\n      pop\n        /* \"#utility.yul\":2355:2356   */\n      dup3\n        /* \"#utility.yul\":2345:2380   */\n      tag_95\n      jumpi\n        /* \"#utility.yul\":2360:2378   */\n      tag_96\n      tag_53\n      jump\t// in\n    tag_96:\n        /* \"#utility.yul\":2345:2380   */\n    tag_95:\n        /* \"#utility.yul\":2402:2403   */\n      dup3\n        /* \"#utility.yul\":2399:2400   */\n      dup3\n        /* \"#utility.yul\":2395:2404   */\n      div\n        /* \"#utility.yul\":2390:2404   */\n      swap1\n      pop\n        /* \"#utility.yul\":2225:2410   */\n      swap3\n      swap2\n      pop\n      pop\n      jump\t// out\n\n    auxdata: 0xa264697066735822122081b8ec35b8662c55c09fd6340141f1b7568b2012db6dc485f5e04bf1ec67daaf64736f6c634300081a0033\n}\n",
				"bytecode": {
					"linkReferences": {},
					"object": "608060405260045f553480156012575f80fd5b506103c2806100205f395ff3fe608060405234801561000f575f80fd5b5060043610610086575f3560e01c8063c54124be11610059578063c54124be146100c6578063d09de08a146100d0578063e879a13e146100da578063f9fa48c3146100e457610086565b80632986e0541461008a5780632baeceb7146100945780633c6bb4361461009e5780634f2be91f146100bc575b5f80fd5b6100926100ee565b005b61009c610103565b005b6100a661011b565b6040516100b391906101a4565b60405180910390f35b6100c4610120565b005b6100ce610135565b005b6100d861014a565b005b6100e2610162565b005b6100ec610177565b005b600a5f546100fc91906101ea565b5f81905550565b5f8081548092919061011490610247565b9190505550565b5f5481565b60025f5461012e919061026e565b5f81905550565b60025f5461014391906102a1565b5f81905550565b5f8081548092919061015b906102d4565b9190505550565b60025f54610170919061031b565b5f81905550565b60025f54610185919061035c565b5f81905550565b5f819050919050565b61019e8161018c565b82525050565b5f6020820190506101b75f830184610195565b92915050565b7f4e487b71000000000000000000000000000000000000000000000000000000005f52601260045260245ffd5b5f6101f48261018c565b91506101ff8361018c565b92508261020f5761020e6101bd565b5b828206905092915050565b7f4e487b71000000000000000000000000000000000000000000000000000000005f52601160045260245ffd5b5f6102518261018c565b91505f82036102635761026261021a565b5b600182039050919050565b5f6102788261018c565b91506102838361018c565b925082820190508082111561029b5761029a61021a565b5b92915050565b5f6102ab8261018c565b91506102b68361018c565b92508282039050818111156102ce576102cd61021a565b5b92915050565b5f6102de8261018c565b91507fffffffffffffffffffffffffffffffffffffffffffffffffffffffffffffffff82036103105761030f61021a565b5b600182019050919050565b5f6103258261018c565b91506103308361018c565b925082820261033e8161018c565b915082820484148315176103555761035461021a565b5b5092915050565b5f6103668261018c565b91506103718361018c565b925082610381576103806101bd565b5b82820490509291505056fea264697066735822122081b8ec35b8662c55c09fd6340141f1b7568b2012db6dc485f5e04bf1ec67daaf64736f6c634300081a0033",
					"opcodes": "PUSH1 0x80 PUSH1 0x40 MSTORE PUSH1 0x4 PUSH0 SSTORE CALLVALUE DUP1 ISZERO PUSH1 0x12 JUMPI PUSH0 DUP1 REVERT JUMPDEST POP PUSH2 0x3C2 DUP1 PUSH2 0x20 PUSH0 CODECOPY PUSH0 RETURN INVALID PUSH1 0x80 PUSH1 0x40 MSTORE CALLVALUE DUP1 ISZERO PUSH2 0xF JUMPI PUSH0 DUP1 REVERT JUMPDEST POP PUSH1 0x4 CALLDATASIZE LT PUSH2 0x86 JUMPI PUSH0 CALLDATALOAD PUSH1 0xE0 SHR DUP1 PUSH4 0xC54124BE GT PUSH2 0x59 JUMPI DUP1 PUSH4 0xC54124BE EQ PUSH2 0xC6 JUMPI DUP1 PUSH4 0xD09DE08A EQ PUSH2 0xD0 JUMPI DUP1 PUSH4 0xE879A13E EQ PUSH2 0xDA JUMPI DUP1 PUSH4 0xF9FA48C3 EQ PUSH2 0xE4 JUMPI PUSH2 0x86 JUMP JUMPDEST DUP1 PUSH4 0x2986E054 EQ PUSH2 0x8A JUMPI DUP1 PUSH4 0x2BAECEB7 EQ PUSH2 0x94 JUMPI DUP1 PUSH4 0x3C6BB436 EQ PUSH2 0x9E JUMPI DUP1 PUSH4 0x4F2BE91F EQ PUSH2 0xBC JUMPI JUMPDEST PUSH0 DUP1 REVERT JUMPDEST PUSH2 0x92 PUSH2 0xEE JUMP JUMPDEST STOP JUMPDEST PUSH2 0x9C PUSH2 0x103 JUMP JUMPDEST STOP JUMPDEST PUSH2 0xA6 PUSH2 0x11B JUMP JUMPDEST PUSH1 0x40 MLOAD PUSH2 0xB3 SWAP2 SWAP1 PUSH2 0x1A4 JUMP JUMPDEST PUSH1 0x40 MLOAD DUP1 SWAP2 SUB SWAP1 RETURN JUMPDEST PUSH2 0xC4 PUSH2 0x120 JUMP JUMPDEST STOP JUMPDEST PUSH2 0xCE PUSH2 0x135 JUMP JUMPDEST STOP JUMPDEST PUSH2 0xD8 PUSH2 0x14A JUMP JUMPDEST STOP JUMPDEST PUSH2 0xE2 PUSH2 0x162 JUMP JUMPDEST STOP JUMPDEST PUSH2 0xEC PUSH2 0x177 JUMP JUMPDEST STOP JUMPDEST PUSH1 0xA PUSH0 SLOAD PUSH2 0xFC SWAP2 SWAP1 PUSH2 0x1EA JUMP JUMPDEST PUSH0 DUP2 SWAP1 SSTORE POP JUMP JUMPDEST PUSH0 DUP1 DUP2 SLOAD DUP1 SWAP3 SWAP2 SWAP1 PUSH2 0x114 SWAP1 PUSH2 0x247 JUMP JUMPDEST SWAP2 SWAP1 POP SSTORE POP JUMP JUMPDEST PUSH0 SLOAD DUP2 JUMP JUMPDEST PUSH1 0x2 PUSH0 SLOAD PUSH2 0x12E SWAP2 SWAP1 PUSH2 0x26E JUMP JUMPDEST PUSH0 DUP2 SWAP1 SSTORE POP JUMP JUMPDEST PUSH1 0x2 PUSH0 SLOAD PUSH2 0x143 SWAP2 SWAP1 PUSH2 0x2A1 JUMP JUMPDEST PUSH0 DUP2 SWAP1 SSTORE POP JUMP JUMPDEST PUSH0 DUP1 DUP2 SLOAD DUP1 SWAP3 SWAP2 SWAP1 PUSH2 0x15B SWAP1 PUSH2 0x2D4 JUMP JUMPDEST SWAP2 SWAP1 POP SSTORE POP JUMP JUMPDEST PUSH1 0x2 PUSH0 SLOAD PUSH2 0x170 SWAP2 SWAP1 PUSH2 0x31B JUMP JUMPDEST PUSH0 DUP2 SWAP1 SSTORE POP JUMP JUMPDEST PUSH1 0x2 PUSH0 SLOAD PUSH2 0x185 SWAP2 SWAP1 PUSH2 0x35C JUMP JUMPDEST PUSH0 DUP2 SWAP1 SSTORE POP JUMP JUMPDEST PUSH0 DUP2 SWAP1 POP SWAP2 SWAP1 POP JUMP JUMPDEST PUSH2 0x19E DUP2 PUSH2 0x18C JUMP JUMPDEST DUP3 MSTORE POP POP JUMP JUMPDEST PUSH0 PUSH1 0x20 DUP3 ADD SWAP1 POP PUSH2 0x1B7 PUSH0 DUP4 ADD DUP5 PUSH2 0x195 JUMP JUMPDEST SWAP3 SWAP2 POP POP JUMP JUMPDEST PUSH32 0x4E487B7100000000000000000000000000000000000000000000000000000000 PUSH0 MSTORE PUSH1 0x12 PUSH1 0x4 MSTORE PUSH1 0x24 PUSH0 REVERT JUMPDEST PUSH0 PUSH2 0x1F4 DUP3 PUSH2 0x18C JUMP JUMPDEST SWAP2 POP PUSH2 0x1FF DUP4 PUSH2 0x18C JUMP JUMPDEST SWAP3 POP DUP3 PUSH2 0x20F JUMPI PUSH2 0x20E PUSH2 0x1BD JUMP JUMPDEST JUMPDEST DUP3 DUP3 MOD SWAP1 POP SWAP3 SWAP2 POP POP JUMP JUMPDEST PUSH32 0x4E487B7100000000000000000000000000000000000000000000000000000000 PUSH0 MSTORE PUSH1 0x11 PUSH1 0x4 MSTORE PUSH1 0x24 PUSH0 REVERT JUMPDEST PUSH0 PUSH2 0x251 DUP3 PUSH2 0x18C JUMP JUMPDEST SWAP2 POP PUSH0 DUP3 SUB PUSH2 0x263 JUMPI PUSH2 0x262 PUSH2 0x21A JUMP JUMPDEST JUMPDEST PUSH1 0x1 DUP3 SUB SWAP1 POP SWAP2 SWAP1 POP JUMP JUMPDEST PUSH0 PUSH2 0x278 DUP3 PUSH2 0x18C JUMP JUMPDEST SWAP2 POP PUSH2 0x283 DUP4 PUSH2 0x18C JUMP JUMPDEST SWAP3 POP DUP3 DUP3 ADD SWAP1 POP DUP1 DUP3 GT ISZERO PUSH2 0x29B JUMPI PUSH2 0x29A PUSH2 0x21A JUMP JUMPDEST JUMPDEST SWAP3 SWAP2 POP POP JUMP JUMPDEST PUSH0 PUSH2 0x2AB DUP3 PUSH2 0x18C JUMP JUMPDEST SWAP2 POP PUSH2 0x2B6 DUP4 PUSH2 0x18C JUMP JUMPDEST SWAP3 POP DUP3 DUP3 SUB SWAP1 POP DUP2 DUP2 GT ISZERO PUSH2 0x2CE JUMPI PUSH2 0x2CD PUSH2 0x21A JUMP JUMPDEST JUMPDEST SWAP3 SWAP2 POP POP JUMP JUMPDEST PUSH0 PUSH2 0x2DE DUP3 PUSH2 0x18C JUMP JUMPDEST SWAP2 POP PUSH32 0xFFFFFFFFFFFFFFFFFFFFFFFFFFFFFFFFFFFFFFFFFFFFFFFFFFFFFFFFFFFFFFFF DUP3 SUB PUSH2 0x310 JUMPI PUSH2 0x30F PUSH2 0x21A JUMP JUMPDEST JUMPDEST PUSH1 0x1 DUP3 ADD SWAP1 POP SWAP2 SWAP1 POP JUMP JUMPDEST PUSH0 PUSH2 0x325 DUP3 PUSH2 0x18C JUMP JUMPDEST SWAP2 POP PUSH2 0x330 DUP4 PUSH2 0x18C JUMP JUMPDEST SWAP3 POP DUP3 DUP3 MUL PUSH2 0x33E DUP2 PUSH2 0x18C JUMP JUMPDEST SWAP2 POP DUP3 DUP3 DIV DUP5 EQ DUP4 ISZERO OR PUSH2 0x355 JUMPI PUSH2 0x354 PUSH2 0x21A JUMP JUMPDEST JUMPDEST POP SWAP3 SWAP2 POP POP JUMP JUMPDEST PUSH0 PUSH2 0x366 DUP3 PUSH2 0x18C JUMP JUMPDEST SWAP2 POP PUSH2 0x371 DUP4 PUSH2 0x18C JUMP JUMPDEST SWAP3 POP DUP3 PUSH2 0x381 JUMPI PUSH2 0x380 PUSH2 0x1BD JUMP JUMPDEST JUMPDEST DUP3 DUP3 DIV SWAP1 POP SWAP3 SWAP2 POP POP JUMP INVALID LOG2 PUSH5 0x6970667358 0x22 SLT KECCAK256 DUP2 0xB8 0xEC CALLDATALOAD 0xB8 PUSH7 0x2C55C09FD63401 COINBASE CALL 0xB7 JUMP DUP12 KECCAK256 SLT 0xDB PUSH14 0xC485F5E04BF1EC67DAAF64736F6C PUSH4 0x4300081A STOP CALLER "
				},
				"gasEstimates": {
					"creation": {
						"codeDepositCost": "192400",
						"executionCost": "22341",
						"totalCost": "214741"
					},
					"external": {
						"add()": "infinite",
						"decrement()": "24519",
						"div()": "infinite",
						"increment()": "24519",
						"mod()": "infinite",
						"mult()": "infinite",
						"sub()": "infinite",
						"val()": "2469"
					}
				},
				"methodIdentifiers": {
					"add()": "4f2be91f",
					"decrement()": "2baeceb7",
					"div()": "f9fa48c3",
					"increment()": "d09de08a",
					"mod()": "2986e054",
					"mult()": "e879a13e",
					"sub()": "c54124be",
					"val()": "3c6bb436"
				}
			},
			"storageLayout": {
				"storage": [
					{
						"astId": 4,
						"contract": "operators.sol:operators",
						"label": "val",
						"offset": 0,
						"slot": "0",
						"type": "t_uint256"
					}
				],
				"types": {
					"t_uint256": {
						"encoding": "inplace",
						"label": "uint256",
						"numberOfBytes": "32"
					}
				}
			},
			"userdoc": {
				"kind": "user",
				"methods": {},
				"version": 1
			}
		}
	}
}