{
	"LogicalOperators.sol": {
		"operators": {
			"abi": [
				{
					"inputs": [],
					"name": "logicalAND",
					"outputs": [
						{
							"internalType": "bool",
							"name": "",
							"type": "bool"
						}
					],
					"stateMutability": "pure",
					"type": "function"
				},
				{
					"inputs": [],
					"name": "logicalNOT",
					"outputs": [
						{
							"internalType": "bool",
							"name": "",
							"type": "bool"
						}
					],
					"stateMutability": "pure",
					"type": "function"
				},
				{
					"inputs": [],
					"name": "logicalOR",
					"outputs": [
						{
							"internalType": "bool",
							"name": "",
							"type": "bool"
						}
					],
					"stateMutability": "pure",
					"type": "function"
				},
				{
					"inputs": [],
					"name": "val",
					"outputs": [
						{
							"internalType": "uint256",
							"name": "",
							"type": "uint256"
						}
					],
					"stateMutability": "view",
					"type": "function"
				}
			],
			"devdoc": {
				"kind": "dev",
				"methods": {},
				"version": 1
			},
			"evm": {
				"assembly": "    /* \"LogicalOperators.sol\":70:407  contract operators {... */\n  mstore(0x40, 0x80)\n    /* \"LogicalOperators.sol\":114:115  4 */\n  0x04\n    /* \"LogicalOperators.sol\":96:115  uint public val = 4 */\n  0x00\n  sstore\n    /* \"LogicalOperators.sol\":70:407  contract operators {... */\n  callvalue\n  dup1\n  iszero\n  tag_1\n  jumpi\n  0x00\n  dup1\n  revert\ntag_1:\n  pop\n  dataSize(sub_0)\n  dup1\n  dataOffset(sub_0)\n  0x00\n  codecopy\n  0x00\n  return\nstop\n\nsub_0: assembly {\n        /* \"LogicalOperators.sol\":70:407  contract operators {... */\n      mstore(0x40, 0x80)\n      callvalue\n      dup1\n      iszero\n      tag_1\n      jumpi\n      0x00\n      dup1\n      revert\n    tag_1:\n      pop\n      jumpi(tag_2, lt(calldatasize, 0x04))\n      shr(0xe0, calldataload(0x00))\n      dup1\n      0x1c98b567\n      eq\n      tag_3\n      jumpi\n      dup1\n      0x3c6bb436\n      eq\n      tag_4\n      jumpi\n      dup1\n      0xa4077431\n      eq\n      tag_5\n      jumpi\n      dup1\n      0xbf808d90\n      eq\n      tag_6\n      jumpi\n    tag_2:\n      0x00\n      dup1\n      revert\n        /* \"LogicalOperators.sol\":222:311  function logicalOR() public pure returns(bool) {... */\n    tag_3:\n      tag_7\n      tag_8\n      jump\t// in\n    tag_7:\n      mload(0x40)\n      tag_9\n      swap2\n      swap1\n      tag_10\n      jump\t// in\n    tag_9:\n      mload(0x40)\n      dup1\n      swap2\n      sub\n      swap1\n      return\n        /* \"LogicalOperators.sol\":96:115  uint public val = 4 */\n    tag_4:\n      tag_11\n      tag_12\n      jump\t// in\n    tag_11:\n      mload(0x40)\n      tag_13\n      swap2\n      swap1\n      tag_14\n      jump\t// in\n    tag_13:\n      mload(0x40)\n      dup1\n      swap2\n      sub\n      swap1\n      return\n        /* \"LogicalOperators.sol\":124:214  function logicalAND() public pure returns(bool) {... */\n    tag_5:\n      tag_15\n      tag_16\n      jump\t// in\n    tag_15:\n      mload(0x40)\n      tag_17\n      swap2\n      swap1\n      tag_10\n      jump\t// in\n    tag_17:\n      mload(0x40)\n      dup1\n      swap2\n      sub\n      swap1\n      return\n        /* \"LogicalOperators.sol\":319:402  function logicalNOT() public pure returns(bool) {... */\n    tag_6:\n      tag_18\n      tag_19\n      jump\t// in\n    tag_18:\n      mload(0x40)\n      tag_20\n      swap2\n      swap1\n      tag_10\n      jump\t// in\n    tag_20:\n      mload(0x40)\n      dup1\n      swap2\n      sub\n      swap1\n      return\n        /* \"LogicalOperators.sol\":222:311  function logicalOR() public pure returns(bool) {... */\n    tag_8:\n        /* \"LogicalOperators.sol\":263:267  bool */\n      0x00\n        /* \"LogicalOperators.sol\":292:293  1 */\n      0x01\n        /* \"LogicalOperators.sol\":288:289  2 */\n      0x02\n        /* \"LogicalOperators.sol\":288:293  2 > 1 */\n      gt\n        /* \"LogicalOperators.sol\":288:302  2 > 1 || 2 > 4 */\n      dup1\n      tag_22\n      jumpi\n      pop\n        /* \"LogicalOperators.sol\":301:302  4 */\n      0x04\n        /* \"LogicalOperators.sol\":297:298  2 */\n      0x02\n        /* \"LogicalOperators.sol\":297:302  2 > 4 */\n      gt\n        /* \"LogicalOperators.sol\":288:302  2 > 1 || 2 > 4 */\n    tag_22:\n        /* \"LogicalOperators.sol\":280:303  return (2 > 1 || 2 > 4) */\n      swap1\n      pop\n        /* \"LogicalOperators.sol\":222:311  function logicalOR() public pure returns(bool) {... */\n      swap1\n      jump\t// out\n        /* \"LogicalOperators.sol\":96:115  uint public val = 4 */\n    tag_12:\n      sload(0x00)\n      dup2\n      jump\t// out\n        /* \"LogicalOperators.sol\":124:214  function logicalAND() public pure returns(bool) {... */\n    tag_16:\n        /* \"LogicalOperators.sol\":166:170  bool */\n      0x00\n        /* \"LogicalOperators.sol\":195:196  1 */\n      0x01\n        /* \"LogicalOperators.sol\":191:192  2 */\n      0x02\n        /* \"LogicalOperators.sol\":191:196  2 > 1 */\n      gt\n        /* \"LogicalOperators.sol\":191:205  2 > 1 && 2 > 0 */\n      dup1\n      iszero\n      tag_24\n      jumpi\n      pop\n        /* \"LogicalOperators.sol\":204:205  0 */\n      0x00\n        /* \"LogicalOperators.sol\":200:201  2 */\n      0x02\n        /* \"LogicalOperators.sol\":200:205  2 > 0 */\n      gt\n        /* \"LogicalOperators.sol\":191:205  2 > 1 && 2 > 0 */\n    tag_24:\n        /* \"LogicalOperators.sol\":183:206  return (2 > 1 && 2 > 0) */\n      swap1\n      pop\n        /* \"LogicalOperators.sol\":124:214  function logicalAND() public pure returns(bool) {... */\n      swap1\n      jump\t// out\n        /* \"LogicalOperators.sol\":319:402  function logicalNOT() public pure returns(bool) {... */\n    tag_19:\n        /* \"LogicalOperators.sol\":361:365  bool */\n      0x00\n        /* \"LogicalOperators.sol\":392:393  4 */\n      0x04\n        /* \"LogicalOperators.sol\":387:388  2 */\n      0x02\n        /* \"LogicalOperators.sol\":387:393  2 == 4 */\n      eq\n        /* \"LogicalOperators.sol\":385:394  !(2 == 4) */\n      iszero\n        /* \"LogicalOperators.sol\":378:394  return !(2 == 4) */\n      swap1\n      pop\n        /* \"LogicalOperators.sol\":319:402  function logicalNOT() public pure returns(bool) {... */\n      swap1\n      jump\t// out\n        /* \"#utility.yul\":7:97   */\n    tag_26:\n        /* \"#utility.yul\":41:48   */\n      0x00\n        /* \"#utility.yul\":84:89   */\n      dup2\n        /* \"#utility.yul\":77:90   */\n      iszero\n        /* \"#utility.yul\":70:91   */\n      iszero\n        /* \"#utility.yul\":59:91   */\n      swap1\n      pop\n        /* \"#utility.yul\":7:97   */\n      swap2\n      swap1\n      pop\n      jump\t// out\n        /* \"#utility.yul\":103:212   */\n    tag_27:\n        /* \"#utility.yul\":184:205   */\n      tag_33\n        /* \"#utility.yul\":199:204   */\n      dup2\n        /* \"#utility.yul\":184:205   */\n      tag_26\n      jump\t// in\n    tag_33:\n        /* \"#utility.yul\":179:182   */\n      dup3\n        /* \"#utility.yul\":172:206   */\n      mstore\n        /* \"#utility.yul\":103:212   */\n      pop\n      pop\n      jump\t// out\n        /* \"#utility.yul\":218:428   */\n    tag_10:\n        /* \"#utility.yul\":305:309   */\n      0x00\n        /* \"#utility.yul\":343:345   */\n      0x20\n        /* \"#utility.yul\":332:341   */\n      dup3\n        /* \"#utility.yul\":328:346   */\n      add\n        /* \"#utility.yul\":320:346   */\n      swap1\n      pop\n        /* \"#utility.yul\":356:421   */\n      tag_35\n        /* \"#utility.yul\":418:419   */\n      0x00\n        /* \"#utility.yul\":407:416   */\n      dup4\n        /* \"#utility.yul\":403:420   */\n      add\n        /* \"#utility.yul\":394:400   */\n      dup5\n        /* \"#utility.yul\":356:421   */\n      tag_27\n      jump\t// in\n    tag_35:\n        /* \"#utility.yul\":218:428   */\n      swap3\n      swap2\n      pop\n      pop\n      jump\t// out\n        /* \"#utility.yul\":434:511   */\n    tag_28:\n        /* \"#utility.yul\":471:478   */\n      0x00\n        /* \"#utility.yul\":500:505   */\n      dup2\n        /* \"#utility.yul\":489:505   */\n      swap1\n      pop\n        /* \"#utility.yul\":434:511   */\n      swap2\n      swap1\n      pop\n      jump\t// out\n        /* \"#utility.yul\":517:635   */\n    tag_29:\n        /* \"#utility.yul\":604:628   */\n      tag_38\n        /* \"#utility.yul\":622:627   */\n      dup2\n        /* \"#utility.yul\":604:628   */\n      tag_28\n      jump\t// in\n    tag_38:\n        /* \"#utility.yul\":599:602   */\n      dup3\n        /* \"#utility.yul\":592:629   */\n      mstore\n        /* \"#utility.yul\":517:635   */\n      pop\n      pop\n      jump\t// out\n        /* \"#utility.yul\":641:863   */\n    tag_14:\n        /* \"#utility.yul\":734:738   */\n      0x00\n        /* \"#utility.yul\":772:774   */\n      0x20\n        /* \"#utility.yul\":761:770   */\n      dup3\n        /* \"#utility.yul\":757:775   */\n      add\n        /* \"#utility.yul\":749:775   */\n      swap1\n      pop\n        /* \"#utility.yul\":785:856   */\n      tag_40\n        /* \"#utility.yul\":853:854   */\n      0x00\n        /* \"#utility.yul\":842:851   */\n      dup4\n        /* \"#utility.yul\":838:855   */\n      add\n        /* \"#utility.yul\":829:835   */\n      dup5\n        /* \"#utility.yul\":785:856   */\n      tag_29\n      jump\t// in\n    tag_40:\n        /* \"#utility.yul\":641:863   */\n      swap3\n      swap2\n      pop\n      pop\n      jump\t// out\n\n    auxdata: 0xa2646970667358221220b2b82f6a27bc4005ff8271c2c3875a96c4b84dd526a5f03daca9f1ff2a0467e164736f6c634300081a0033\n}\n",
				"bytecode": {
					"linkReferences": {},
					"object": "608060405260045f553480156012575f80fd5b5061019f806100205f395ff3fe608060405234801561000f575f80fd5b506004361061004a575f3560e01c80631c98b5671461004e5780633c6bb4361461006c578063a40774311461008a578063bf808d90146100a8575b5f80fd5b6100566100c6565b604051610063919061011f565b60405180910390f35b6100746100dd565b6040516100819190610150565b60405180910390f35b6100926100e2565b60405161009f919061011f565b60405180910390f35b6100b06100f9565b6040516100bd919061011f565b60405180910390f35b5f6001600211806100d8575060046002115b905090565b5f5481565b5f600160021180156100f457505f6002115b905090565b5f600460021415905090565b5f8115159050919050565b61011981610105565b82525050565b5f6020820190506101325f830184610110565b92915050565b5f819050919050565b61014a81610138565b82525050565b5f6020820190506101635f830184610141565b9291505056fea2646970667358221220b2b82f6a27bc4005ff8271c2c3875a96c4b84dd526a5f03daca9f1ff2a0467e164736f6c634300081a0033",
					"opcodes": "PUSH1 0x80 PUSH1 0x40 MSTORE PUSH1 0x4 PUSH0 SSTORE CALLVALUE DUP1 ISZERO PUSH1 0x12 JUMPI PUSH0 DUP1 REVERT JUMPDEST POP PUSH2 0x19F DUP1 PUSH2 0x20 PUSH0 CODECOPY PUSH0 RETURN INVALID PUSH1 0x80 PUSH1 0x40 MSTORE CALLVALUE DUP1 ISZERO PUSH2 0xF JUMPI PUSH0 DUP1 REVERT JUMPDEST POP PUSH1 0x4 CALLDATASIZE LT PUSH2 0x4A JUMPI PUSH0 CALLDATALOAD PUSH1 0xE0 SHR DUP1 PUSH4 0x1C98B567 EQ PUSH2 0x4E JUMPI DUP1 PUSH4 0x3C6BB436 EQ PUSH2 0x6C JUMPI DUP1 PUSH4 0xA4077431 EQ PUSH2 0x8A JUMPI DUP1 PUSH4 0xBF808D90 EQ PUSH2 0xA8 JUMPI JUMPDEST PUSH0 DUP1 REVERT JUMPDEST PUSH2 0x56 PUSH2 0xC6 JUMP JUMPDEST PUSH1 0x40 MLOAD PUSH2 0x63 SWAP2 SWAP1 PUSH2 0x11F JUMP JUMPDEST PUSH1 0x40 MLOAD DUP1 SWAP2 SUB SWAP1 RETURN JUMPDEST PUSH2 0x74 PUSH2 0xDD JUMP JUMPDEST PUSH1 0x40 MLOAD PUSH2 0x81 SWAP2 SWAP1 PUSH2 0x150 JUMP JUMPDEST PUSH1 0x40 MLOAD DUP1 SWAP2 SUB SWAP1 RETURN JUMPDEST PUSH2 0x92 PUSH2 0xE2 JUMP JUMPDEST PUSH1 0x40 MLOAD PUSH2 0x9F SWAP2 SWAP1 PUSH2 0x11F JUMP JUMPDEST PUSH1 0x40 MLOAD DUP1 SWAP2 SUB SWAP1 RETURN JUMPDEST PUSH2 0xB0 PUSH2 0xF9 JUMP JUMPDEST PUSH1 0x40 MLOAD PUSH2 0xBD SWAP2 SWAP1 PUSH2 0x11F JUMP JUMPDEST PUSH1 0x40 MLOAD DUP1 SWAP2 SUB SWAP1 RETURN JUMPDEST PUSH0 PUSH1 0x1 PUSH1 0x2 GT DUP1 PUSH2 0xD8 JUMPI POP PUSH1 0x4 PUSH1 0x2 GT JUMPDEST SWAP1 POP SWAP1 JUMP JUMPDEST PUSH0 SLOAD DUP2 JUMP JUMPDEST PUSH0 PUSH1 0x1 PUSH1 0x2 GT DUP1 ISZERO PUSH2 0xF4 JUMPI POP PUSH0 PUSH1 0x2 GT JUMPDEST SWAP1 POP SWAP1 JUMP JUMPDEST PUSH0 PUSH1 0x4 PUSH1 0x2 EQ ISZERO SWAP1 POP SWAP1 JUMP JUMPDEST PUSH0 DUP2 ISZERO ISZERO SWAP1 POP SWAP2 SWAP1 POP JUMP JUMPDEST PUSH2 0x119 DUP2 PUSH2 0x105 JUMP JUMPDEST DUP3 MSTORE POP POP JUMP JUMPDEST PUSH0 PUSH1 0x20 DUP3 ADD SWAP1 POP PUSH2 0x132 PUSH0 DUP4 ADD DUP5 PUSH2 0x110 JUMP JUMPDEST SWAP3 SWAP2 POP POP JUMP JUMPDEST PUSH0 DUP2 SWAP1 POP SWAP2 SWAP1 POP JUMP JUMPDEST PUSH2 0x14A DUP2 PUSH2 0x138 JUMP JUMPDEST DUP3 MSTORE POP POP JUMP JUMPDEST PUSH0 PUSH1 0x20 DUP3 ADD SWAP1 POP PUSH2 0x163 PUSH0 DUP4 ADD DUP5 PUSH2 0x141 JUMP JUMPDEST SWAP3 SWAP2 POP POP JUMP INVALID LOG2 PUSH5 0x6970667358 0x22 SLT KECCAK256 0xB2 0xB8 0x2F PUSH11 0x27BC4005FF8271C2C3875A SWAP7 0xC4 0xB8 0x4D 0xD5 0x26 0xA5 CREATE RETURNDATASIZE 0xAC 0xA9 CALL SELFDESTRUCT 0x2A DIV PUSH8 0xE164736F6C634300 ADDMOD BYTE STOP CALLER "
				},
				"gasEstimates": {
					"creation": {
						"codeDepositCost": "83000",
						"executionCost": "22232",
						"totalCost": "105232"
					},
					"external": {
						"logicalAND()": "396",
						"logicalNOT()": "391",
						"logicalOR()": "339",
						"val()": "2424"
					}
				},
				"methodIdentifiers": {
					"logicalAND()": "a4077431",
					"logicalNOT()": "bf808d90",
					"logicalOR()": "1c98b567",
					"val()": "3c6bb436"
				}
			},
			"storageLayout": {
				"storage": [
					{
						"astId": 4,
						"contract": "LogicalOperators.sol:operators",
						"label": "val",
						"offset": 0,
						"slot": "0",
						"type": "t_uint256"
					}
				],
				"types": {
					"t_uint256": {
						"encoding": "inplace",
						"label": "uint256",
						"numberOfBytes": "32"
					}
				}
			},
			"userdoc": {
				"kind": "user",
				"methods": {},
				"version": 1
			}
		}
	}
}