{
	"AssignmentOperator.sol": {
		"operators": {
			"abi": [
				{
					"inputs": [],
					"name": "Add",
					"outputs": [
						{
							"internalType": "int256",
							"name": "",
							"type": "int256"
						}
					],
					"stateMutability": "nonpayable",
					"type": "function"
				},
				{
					"inputs": [],
					"name": "DIV",
					"outputs": [
						{
							"internalType": "int256",
							"name": "",
							"type": "int256"
						}
					],
					"stateMutability": "nonpayable",
					"type": "function"
				},
				{
					"inputs": [],
					"name": "Equal",
					"outputs": [
						{
							"internalType": "int256",
							"name": "",
							"type": "int256"
						}
					],
					"stateMutability": "nonpayable",
					"type": "function"
				},
				{
					"inputs": [],
					"name": "MOD",
					"outputs": [
						{
							"internalType": "int256",
							"name": "",
							"type": "int256"
						}
					],
					"stateMutability": "nonpayable",
					"type": "function"
				},
				{
					"inputs": [],
					"name": "MULT",
					"outputs": [
						{
							"internalType": "int256",
							"name": "",
							"type": "int256"
						}
					],
					"stateMutability": "nonpayable",
					"type": "function"
				},
				{
					"inputs": [],
					"name": "SUB",
					"outputs": [
						{
							"internalType": "int256",
							"name": "",
							"type": "int256"
						}
					],
					"stateMutability": "nonpayable",
					"type": "function"
				},
				{
					"inputs": [],
					"name": "a",
					"outputs": [
						{
							"internalType": "int256",
							"name": "",
							"type": "int256"
						}
					],
					"stateMutability": "view",
					"type": "function"
				},
				{
					"inputs": [],
					"name": "b",
					"outputs": [
						{
							"internalType": "int256",
							"name": "",
							"type": "int256"
						}
					],
					"stateMutability": "view",
					"type": "function"
				}
			],
			"devdoc": {
				"kind": "dev",
				"methods": {},
				"version": 1
			},
			"evm": {
				"assembly": "    /* \"AssignmentOperator.sol\":70:669  contract operators {... */\n  mstore(0x40, 0x80)\n    /* \"AssignmentOperator.sol\":111:112  4 */\n  0x04\n    /* \"AssignmentOperator.sol\":96:112  int public a = 4 */\n  0x00\n  sstore\n    /* \"AssignmentOperator.sol\":132:133  5 */\n  0x05\n    /* \"AssignmentOperator.sol\":119:133  int public b=5 */\n  0x01\n  sstore\n    /* \"AssignmentOperator.sol\":70:669  contract operators {... */\n  callvalue\n  dup1\n  iszero\n  tag_1\n  jumpi\n  0x00\n  dup1\n  revert\ntag_1:\n  pop\n  dataSize(sub_0)\n  dup1\n  dataOffset(sub_0)\n  0x00\n  codecopy\n  0x00\n  return\nstop\n\nsub_0: assembly {\n        /* \"AssignmentOperator.sol\":70:669  contract operators {... */\n      mstore(0x40, 0x80)\n      callvalue\n      dup1\n      iszero\n      tag_1\n      jumpi\n      0x00\n      dup1\n      revert\n    tag_1:\n      pop\n      jumpi(tag_2, lt(calldatasize, 0x04))\n      shr(0xe0, calldataload(0x00))\n      dup1\n      0xbcfe3489\n      gt\n      tag_11\n      jumpi\n      dup1\n      0xbcfe3489\n      eq\n      tag_7\n      jumpi\n      dup1\n      0xc4b35f3d\n      eq\n      tag_8\n      jumpi\n      dup1\n      0xc6bfca73\n      eq\n      tag_9\n      jumpi\n      dup1\n      0xd2c194f8\n      eq\n      tag_10\n      jumpi\n      jump(tag_2)\n    tag_11:\n      dup1\n      0x0dbe671f\n      eq\n      tag_3\n      jumpi\n      dup1\n      0x4df7e3d0\n      eq\n      tag_4\n      jumpi\n      dup1\n      0x5e2c5962\n      eq\n      tag_5\n      jumpi\n      dup1\n      0x67e06858\n      eq\n      tag_6\n      jumpi\n    tag_2:\n      0x00\n      dup1\n      revert\n        /* \"AssignmentOperator.sol\":96:112  int public a = 4 */\n    tag_3:\n      tag_12\n      tag_13\n      jump\t// in\n    tag_12:\n      mload(0x40)\n      tag_14\n      swap2\n      swap1\n      tag_15\n      jump\t// in\n    tag_14:\n      mload(0x40)\n      dup1\n      swap2\n      sub\n      swap1\n      return\n        /* \"AssignmentOperator.sol\":119:133  int public b=5 */\n    tag_4:\n      tag_16\n      tag_17\n      jump\t// in\n    tag_16:\n      mload(0x40)\n      tag_18\n      swap2\n      swap1\n      tag_15\n      jump\t// in\n    tag_18:\n      mload(0x40)\n      dup1\n      swap2\n      sub\n      swap1\n      return\n        /* \"AssignmentOperator.sol\":404:484  function MULT() public returns(int) {... */\n    tag_5:\n      tag_19\n      tag_20\n      jump\t// in\n    tag_19:\n      mload(0x40)\n      tag_21\n      swap2\n      swap1\n      tag_15\n      jump\t// in\n    tag_21:\n      mload(0x40)\n      dup1\n      swap2\n      sub\n      swap1\n      return\n        /* \"AssignmentOperator.sol\":230:309  function Add() public returns(int) {... */\n    tag_6:\n      tag_22\n      tag_23\n      jump\t// in\n    tag_22:\n      mload(0x40)\n      tag_24\n      swap2\n      swap1\n      tag_15\n      jump\t// in\n    tag_24:\n      mload(0x40)\n      dup1\n      swap2\n      sub\n      swap1\n      return\n        /* \"AssignmentOperator.sol\":317:396  function SUB() public returns(int) {... */\n    tag_7:\n      tag_25\n      tag_26\n      jump\t// in\n    tag_25:\n      mload(0x40)\n      tag_27\n      swap2\n      swap1\n      tag_15\n      jump\t// in\n    tag_27:\n      mload(0x40)\n      dup1\n      swap2\n      sub\n      swap1\n      return\n        /* \"AssignmentOperator.sol\":492:571  function DIV() public returns(int) {... */\n    tag_8:\n      tag_28\n      tag_29\n      jump\t// in\n    tag_28:\n      mload(0x40)\n      tag_30\n      swap2\n      swap1\n      tag_15\n      jump\t// in\n    tag_30:\n      mload(0x40)\n      dup1\n      swap2\n      sub\n      swap1\n      return\n        /* \"AssignmentOperator.sol\":142:222  function Equal() public returns(int) {... */\n    tag_9:\n      tag_31\n      tag_32\n      jump\t// in\n    tag_31:\n      mload(0x40)\n      tag_33\n      swap2\n      swap1\n      tag_15\n      jump\t// in\n    tag_33:\n      mload(0x40)\n      dup1\n      swap2\n      sub\n      swap1\n      return\n        /* \"AssignmentOperator.sol\":579:658  function MOD() public returns(int) {... */\n    tag_10:\n      tag_34\n      tag_35\n      jump\t// in\n    tag_34:\n      mload(0x40)\n      tag_36\n      swap2\n      swap1\n      tag_15\n      jump\t// in\n    tag_36:\n      mload(0x40)\n      dup1\n      swap2\n      sub\n      swap1\n      return\n        /* \"AssignmentOperator.sol\":96:112  int public a = 4 */\n    tag_13:\n      sload(0x00)\n      dup2\n      jump\t// out\n        /* \"AssignmentOperator.sol\":119:133  int public b=5 */\n    tag_17:\n      sload(0x01)\n      dup2\n      jump\t// out\n        /* \"AssignmentOperator.sol\":404:484  function MULT() public returns(int) {... */\n    tag_20:\n        /* \"AssignmentOperator.sol\":435:438  int */\n      0x00\n        /* \"AssignmentOperator.sol\":456:457  3 */\n      0x03\n        /* \"AssignmentOperator.sol\":451:452  b */\n      0x01\n      0x00\n        /* \"AssignmentOperator.sol\":451:457  b *= 3 */\n      dup3\n      dup3\n      sload\n      tag_38\n      swap2\n      swap1\n      tag_39\n      jump\t// in\n    tag_38:\n      swap3\n      pop\n      pop\n      dup2\n      swap1\n      sstore\n      pop\n        /* \"AssignmentOperator.sol\":475:476  b */\n      sload(0x01)\n        /* \"AssignmentOperator.sol\":468:476  return b */\n      swap1\n      pop\n        /* \"AssignmentOperator.sol\":404:484  function MULT() public returns(int) {... */\n      swap1\n      jump\t// out\n        /* \"AssignmentOperator.sol\":230:309  function Add() public returns(int) {... */\n    tag_23:\n        /* \"AssignmentOperator.sol\":260:263  int */\n      0x00\n        /* \"AssignmentOperator.sol\":281:282  3 */\n      0x03\n        /* \"AssignmentOperator.sol\":276:277  b */\n      0x01\n      0x00\n        /* \"AssignmentOperator.sol\":276:282  b += 3 */\n      dup3\n      dup3\n      sload\n      tag_41\n      swap2\n      swap1\n      tag_42\n      jump\t// in\n    tag_41:\n      swap3\n      pop\n      pop\n      dup2\n      swap1\n      sstore\n      pop\n        /* \"AssignmentOperator.sol\":300:301  b */\n      sload(0x01)\n        /* \"AssignmentOperator.sol\":293:301  return b */\n      swap1\n      pop\n        /* \"AssignmentOperator.sol\":230:309  function Add() public returns(int) {... */\n      swap1\n      jump\t// out\n        /* \"AssignmentOperator.sol\":317:396  function SUB() public returns(int) {... */\n    tag_26:\n        /* \"AssignmentOperator.sol\":347:350  int */\n      0x00\n        /* \"AssignmentOperator.sol\":368:369  3 */\n      0x03\n        /* \"AssignmentOperator.sol\":363:364  b */\n      0x01\n      0x00\n        /* \"AssignmentOperator.sol\":363:369  b -= 3 */\n      dup3\n      dup3\n      sload\n      tag_44\n      swap2\n      swap1\n      tag_45\n      jump\t// in\n    tag_44:\n      swap3\n      pop\n      pop\n      dup2\n      swap1\n      sstore\n      pop\n        /* \"AssignmentOperator.sol\":387:388  b */\n      sload(0x01)\n        /* \"AssignmentOperator.sol\":380:388  return b */\n      swap1\n      pop\n        /* \"AssignmentOperator.sol\":317:396  function SUB() public returns(int) {... */\n      swap1\n      jump\t// out\n        /* \"AssignmentOperator.sol\":492:571  function DIV() public returns(int) {... */\n    tag_29:\n        /* \"AssignmentOperator.sol\":522:525  int */\n      0x00\n        /* \"AssignmentOperator.sol\":543:544  3 */\n      0x03\n        /* \"AssignmentOperator.sol\":538:539  b */\n      0x01\n      0x00\n        /* \"AssignmentOperator.sol\":538:544  b /= 3 */\n      dup3\n      dup3\n      sload\n      tag_47\n      swap2\n      swap1\n      tag_48\n      jump\t// in\n    tag_47:\n      swap3\n      pop\n      pop\n      dup2\n      swap1\n      sstore\n      pop\n        /* \"AssignmentOperator.sol\":562:563  b */\n      sload(0x01)\n        /* \"AssignmentOperator.sol\":555:563  return b */\n      swap1\n      pop\n        /* \"AssignmentOperator.sol\":492:571  function DIV() public returns(int) {... */\n      swap1\n      jump\t// out\n        /* \"AssignmentOperator.sol\":142:222  function Equal() public returns(int) {... */\n    tag_32:\n        /* \"AssignmentOperator.sol\":174:177  int */\n      0x00\n        /* \"AssignmentOperator.sol\":194:195  3 */\n      0x03\n        /* \"AssignmentOperator.sol\":190:191  b */\n      0x01\n        /* \"AssignmentOperator.sol\":190:195  b = 3 */\n      dup2\n      swap1\n      sstore\n      pop\n        /* \"AssignmentOperator.sol\":213:214  b */\n      sload(0x01)\n        /* \"AssignmentOperator.sol\":206:214  return b */\n      swap1\n      pop\n        /* \"AssignmentOperator.sol\":142:222  function Equal() public returns(int) {... */\n      swap1\n      jump\t// out\n        /* \"AssignmentOperator.sol\":579:658  function MOD() public returns(int) {... */\n    tag_35:\n        /* \"AssignmentOperator.sol\":609:612  int */\n      0x00\n        /* \"AssignmentOperator.sol\":630:631  3 */\n      0x03\n        /* \"AssignmentOperator.sol\":625:626  b */\n      0x01\n      0x00\n        /* \"AssignmentOperator.sol\":625:631  b %= 3 */\n      dup3\n      dup3\n      sload\n      tag_51\n      swap2\n      swap1\n      tag_52\n      jump\t// in\n    tag_51:\n      swap3\n      pop\n      pop\n      dup2\n      swap1\n      sstore\n      pop\n        /* \"AssignmentOperator.sol\":649:650  b */\n      sload(0x01)\n        /* \"AssignmentOperator.sol\":642:650  return b */\n      swap1\n      pop\n        /* \"AssignmentOperator.sol\":579:658  function MOD() public returns(int) {... */\n      swap1\n      jump\t// out\n        /* \"#utility.yul\":7:83   */\n    tag_53:\n        /* \"#utility.yul\":43:50   */\n      0x00\n        /* \"#utility.yul\":72:77   */\n      dup2\n        /* \"#utility.yul\":61:77   */\n      swap1\n      pop\n        /* \"#utility.yul\":7:83   */\n      swap2\n      swap1\n      pop\n      jump\t// out\n        /* \"#utility.yul\":89:204   */\n    tag_54:\n        /* \"#utility.yul\":174:197   */\n      tag_60\n        /* \"#utility.yul\":191:196   */\n      dup2\n        /* \"#utility.yul\":174:197   */\n      tag_53\n      jump\t// in\n    tag_60:\n        /* \"#utility.yul\":169:172   */\n      dup3\n        /* \"#utility.yul\":162:198   */\n      mstore\n        /* \"#utility.yul\":89:204   */\n      pop\n      pop\n      jump\t// out\n        /* \"#utility.yul\":210:428   */\n    tag_15:\n        /* \"#utility.yul\":301:305   */\n      0x00\n        /* \"#utility.yul\":339:341   */\n      0x20\n        /* \"#utility.yul\":328:337   */\n      dup3\n        /* \"#utility.yul\":324:342   */\n      add\n        /* \"#utility.yul\":316:342   */\n      swap1\n      pop\n        /* \"#utility.yul\":352:421   */\n      tag_62\n        /* \"#utility.yul\":418:419   */\n      0x00\n        /* \"#utility.yul\":407:416   */\n      dup4\n        /* \"#utility.yul\":403:420   */\n      add\n        /* \"#utility.yul\":394:400   */\n      dup5\n        /* \"#utility.yul\":352:421   */\n      tag_54\n      jump\t// in\n    tag_62:\n        /* \"#utility.yul\":210:428   */\n      swap3\n      swap2\n      pop\n      pop\n      jump\t// out\n        /* \"#utility.yul\":434:614   */\n    tag_55:\n        /* \"#utility.yul\":482:559   */\n      0x4e487b7100000000000000000000000000000000000000000000000000000000\n        /* \"#utility.yul\":479:480   */\n      0x00\n        /* \"#utility.yul\":472:560   */\n      mstore\n        /* \"#utility.yul\":579:583   */\n      0x11\n        /* \"#utility.yul\":576:577   */\n      0x04\n        /* \"#utility.yul\":569:584   */\n      mstore\n        /* \"#utility.yul\":603:607   */\n      0x24\n        /* \"#utility.yul\":600:601   */\n      0x00\n        /* \"#utility.yul\":593:608   */\n      revert\n        /* \"#utility.yul\":620:1176   */\n    tag_39:\n        /* \"#utility.yul\":659:666   */\n      0x00\n        /* \"#utility.yul\":682:701   */\n      tag_65\n        /* \"#utility.yul\":699:700   */\n      dup3\n        /* \"#utility.yul\":682:701   */\n      tag_53\n      jump\t// in\n    tag_65:\n        /* \"#utility.yul\":677:701   */\n      swap2\n      pop\n        /* \"#utility.yul\":715:734   */\n      tag_66\n        /* \"#utility.yul\":732:733   */\n      dup4\n        /* \"#utility.yul\":715:734   */\n      tag_53\n      jump\t// in\n    tag_66:\n        /* \"#utility.yul\":710:734   */\n      swap3\n      pop\n        /* \"#utility.yul\":769:770   */\n      dup3\n        /* \"#utility.yul\":766:767   */\n      dup3\n        /* \"#utility.yul\":762:771   */\n      mul\n        /* \"#utility.yul\":791:820   */\n      tag_67\n        /* \"#utility.yul\":808:819   */\n      dup2\n        /* \"#utility.yul\":791:820   */\n      tag_53\n      jump\t// in\n    tag_67:\n        /* \"#utility.yul\":780:820   */\n      swap2\n      pop\n        /* \"#utility.yul\":878:944   */\n      0x8000000000000000000000000000000000000000000000000000000000000000\n        /* \"#utility.yul\":875:876   */\n      dup5\n        /* \"#utility.yul\":872:945   */\n      eq\n        /* \"#utility.yul\":868:869   */\n      0x00\n        /* \"#utility.yul\":865:866   */\n      dup5\n        /* \"#utility.yul\":861:870   */\n      slt\n        /* \"#utility.yul\":857:946   */\n      and\n        /* \"#utility.yul\":854:969   */\n      iszero\n      tag_68\n      jumpi\n        /* \"#utility.yul\":949:967   */\n      tag_69\n      tag_55\n      jump\t// in\n    tag_69:\n        /* \"#utility.yul\":854:969   */\n    tag_68:\n        /* \"#utility.yul\":1119:1120   */\n      dup3\n        /* \"#utility.yul\":1110:1117   */\n      dup3\n        /* \"#utility.yul\":1105:1121   */\n      sdiv\n        /* \"#utility.yul\":1102:1103   */\n      dup5\n        /* \"#utility.yul\":1099:1122   */\n      eq\n        /* \"#utility.yul\":1079:1080   */\n      dup4\n        /* \"#utility.yul\":1072:1081   */\n      iszero\n        /* \"#utility.yul\":1052:1136   */\n      or\n        /* \"#utility.yul\":1029:1169   */\n      tag_70\n      jumpi\n        /* \"#utility.yul\":1149:1167   */\n      tag_71\n      tag_55\n      jump\t// in\n    tag_71:\n        /* \"#utility.yul\":1029:1169   */\n    tag_70:\n        /* \"#utility.yul\":667:1176   */\n      pop\n        /* \"#utility.yul\":620:1176   */\n      swap3\n      swap2\n      pop\n      pop\n      jump\t// out\n        /* \"#utility.yul\":1182:1557   */\n    tag_42:\n        /* \"#utility.yul\":1221:1224   */\n      0x00\n        /* \"#utility.yul\":1240:1259   */\n      tag_73\n        /* \"#utility.yul\":1257:1258   */\n      dup3\n        /* \"#utility.yul\":1240:1259   */\n      tag_53\n      jump\t// in\n    tag_73:\n        /* \"#utility.yul\":1235:1259   */\n      swap2\n      pop\n        /* \"#utility.yul\":1273:1292   */\n      tag_74\n        /* \"#utility.yul\":1290:1291   */\n      dup4\n        /* \"#utility.yul\":1273:1292   */\n      tag_53\n      jump\t// in\n    tag_74:\n        /* \"#utility.yul\":1268:1292   */\n      swap3\n      pop\n        /* \"#utility.yul\":1315:1316   */\n      dup3\n        /* \"#utility.yul\":1312:1313   */\n      dup3\n        /* \"#utility.yul\":1308:1317   */\n      add\n        /* \"#utility.yul\":1301:1317   */\n      swap1\n      pop\n        /* \"#utility.yul\":1513:1514   */\n      dup3\n        /* \"#utility.yul\":1508:1511   */\n      dup2\n        /* \"#utility.yul\":1504:1515   */\n      slt\n        /* \"#utility.yul\":1497:1516   */\n      iszero\n        /* \"#utility.yul\":1493:1494   */\n      0x00\n        /* \"#utility.yul\":1490:1491   */\n      dup4\n        /* \"#utility.yul\":1486:1495   */\n      slt\n        /* \"#utility.yul\":1482:1517   */\n      and\n        /* \"#utility.yul\":1465:1466   */\n      dup4\n        /* \"#utility.yul\":1460:1463   */\n      dup3\n        /* \"#utility.yul\":1456:1467   */\n      slt\n        /* \"#utility.yul\":1451:1452   */\n      0x00\n        /* \"#utility.yul\":1448:1449   */\n      dup5\n        /* \"#utility.yul\":1444:1453   */\n      slt\n        /* \"#utility.yul\":1437:1454   */\n      iszero\n        /* \"#utility.yul\":1433:1468   */\n      and\n        /* \"#utility.yul\":1417:1527   */\n      or\n        /* \"#utility.yul\":1414:1550   */\n      iszero\n      tag_75\n      jumpi\n        /* \"#utility.yul\":1530:1548   */\n      tag_76\n      tag_55\n      jump\t// in\n    tag_76:\n        /* \"#utility.yul\":1414:1550   */\n    tag_75:\n        /* \"#utility.yul\":1182:1557   */\n      swap3\n      swap2\n      pop\n      pop\n      jump\t// out\n        /* \"#utility.yul\":1563:1935   */\n    tag_45:\n        /* \"#utility.yul\":1602:1606   */\n      0x00\n        /* \"#utility.yul\":1622:1641   */\n      tag_78\n        /* \"#utility.yul\":1639:1640   */\n      dup3\n        /* \"#utility.yul\":1622:1641   */\n      tag_53\n      jump\t// in\n    tag_78:\n        /* \"#utility.yul\":1617:1641   */\n      swap2\n      pop\n        /* \"#utility.yul\":1655:1674   */\n      tag_79\n        /* \"#utility.yul\":1672:1673   */\n      dup4\n        /* \"#utility.yul\":1655:1674   */\n      tag_53\n      jump\t// in\n    tag_79:\n        /* \"#utility.yul\":1650:1674   */\n      swap3\n      pop\n        /* \"#utility.yul\":1698:1699   */\n      dup3\n        /* \"#utility.yul\":1695:1696   */\n      dup3\n        /* \"#utility.yul\":1691:1700   */\n      sub\n        /* \"#utility.yul\":1683:1700   */\n      swap1\n      pop\n        /* \"#utility.yul\":1892:1893   */\n      dup2\n        /* \"#utility.yul\":1886:1890   */\n      dup2\n        /* \"#utility.yul\":1882:1894   */\n      slt\n        /* \"#utility.yul\":1878:1879   */\n      0x00\n        /* \"#utility.yul\":1875:1876   */\n      dup5\n        /* \"#utility.yul\":1871:1880   */\n      slt\n        /* \"#utility.yul\":1867:1895   */\n      and\n        /* \"#utility.yul\":1850:1851   */\n      dup3\n        /* \"#utility.yul\":1844:1848   */\n      dup3\n        /* \"#utility.yul\":1840:1852   */\n      sgt\n        /* \"#utility.yul\":1835:1836   */\n      0x00\n        /* \"#utility.yul\":1832:1833   */\n      dup6\n        /* \"#utility.yul\":1828:1837   */\n      slt\n        /* \"#utility.yul\":1821:1838   */\n      iszero\n        /* \"#utility.yul\":1817:1853   */\n      and\n        /* \"#utility.yul\":1801:1905   */\n      or\n        /* \"#utility.yul\":1798:1928   */\n      iszero\n      tag_80\n      jumpi\n        /* \"#utility.yul\":1908:1926   */\n      tag_81\n      tag_55\n      jump\t// in\n    tag_81:\n        /* \"#utility.yul\":1798:1928   */\n    tag_80:\n        /* \"#utility.yul\":1563:1935   */\n      swap3\n      swap2\n      pop\n      pop\n      jump\t// out\n        /* \"#utility.yul\":1941:2121   */\n    tag_56:\n        /* \"#utility.yul\":1989:2066   */\n      0x4e487b7100000000000000000000000000000000000000000000000000000000\n        /* \"#utility.yul\":1986:1987   */\n      0x00\n        /* \"#utility.yul\":1979:2067   */\n      mstore\n        /* \"#utility.yul\":2086:2090   */\n      0x12\n        /* \"#utility.yul\":2083:2084   */\n      0x04\n        /* \"#utility.yul\":2076:2091   */\n      mstore\n        /* \"#utility.yul\":2110:2114   */\n      0x24\n        /* \"#utility.yul\":2107:2108   */\n      0x00\n        /* \"#utility.yul\":2100:2115   */\n      revert\n        /* \"#utility.yul\":2127:2512   */\n    tag_48:\n        /* \"#utility.yul\":2166:2167   */\n      0x00\n        /* \"#utility.yul\":2183:2202   */\n      tag_84\n        /* \"#utility.yul\":2200:2201   */\n      dup3\n        /* \"#utility.yul\":2183:2202   */\n      tag_53\n      jump\t// in\n    tag_84:\n        /* \"#utility.yul\":2178:2202   */\n      swap2\n      pop\n        /* \"#utility.yul\":2216:2235   */\n      tag_85\n        /* \"#utility.yul\":2233:2234   */\n      dup4\n        /* \"#utility.yul\":2216:2235   */\n      tag_53\n      jump\t// in\n    tag_85:\n        /* \"#utility.yul\":2211:2235   */\n      swap3\n      pop\n        /* \"#utility.yul\":2254:2255   */\n      dup3\n        /* \"#utility.yul\":2244:2279   */\n      tag_86\n      jumpi\n        /* \"#utility.yul\":2259:2277   */\n      tag_87\n      tag_56\n      jump\t// in\n    tag_87:\n        /* \"#utility.yul\":2244:2279   */\n    tag_86:\n        /* \"#utility.yul\":2445:2446   */\n      0x01\n        /* \"#utility.yul\":2442:2443   */\n      0x00\n        /* \"#utility.yul\":2438:2447   */\n      sub\n        /* \"#utility.yul\":2435:2436   */\n      dup4\n        /* \"#utility.yul\":2432:2448   */\n      eq\n        /* \"#utility.yul\":2351:2417   */\n      0x8000000000000000000000000000000000000000000000000000000000000000\n        /* \"#utility.yul\":2348:2349   */\n      dup4\n        /* \"#utility.yul\":2345:2418   */\n      eq\n        /* \"#utility.yul\":2328:2458   */\n      and\n        /* \"#utility.yul\":2325:2481   */\n      iszero\n      tag_88\n      jumpi\n        /* \"#utility.yul\":2461:2479   */\n      tag_89\n      tag_55\n      jump\t// in\n    tag_89:\n        /* \"#utility.yul\":2325:2481   */\n    tag_88:\n        /* \"#utility.yul\":2504:2505   */\n      dup3\n        /* \"#utility.yul\":2501:2502   */\n      dup3\n        /* \"#utility.yul\":2496:2506   */\n      sdiv\n        /* \"#utility.yul\":2491:2506   */\n      swap1\n      pop\n        /* \"#utility.yul\":2127:2512   */\n      swap3\n      swap2\n      pop\n      pop\n      jump\t// out\n        /* \"#utility.yul\":2518:2692   */\n    tag_52:\n        /* \"#utility.yul\":2549:2550   */\n      0x00\n        /* \"#utility.yul\":2566:2585   */\n      tag_91\n        /* \"#utility.yul\":2583:2584   */\n      dup3\n        /* \"#utility.yul\":2566:2585   */\n      tag_53\n      jump\t// in\n    tag_91:\n        /* \"#utility.yul\":2561:2585   */\n      swap2\n      pop\n        /* \"#utility.yul\":2599:2618   */\n      tag_92\n        /* \"#utility.yul\":2616:2617   */\n      dup4\n        /* \"#utility.yul\":2599:2618   */\n      tag_53\n      jump\t// in\n    tag_92:\n        /* \"#utility.yul\":2594:2618   */\n      swap3\n      pop\n        /* \"#utility.yul\":2637:2638   */\n      dup3\n        /* \"#utility.yul\":2627:2662   */\n      tag_93\n      jumpi\n        /* \"#utility.yul\":2642:2660   */\n      tag_94\n      tag_56\n      jump\t// in\n    tag_94:\n        /* \"#utility.yul\":2627:2662   */\n    tag_93:\n        /* \"#utility.yul\":2684:2685   */\n      dup3\n        /* \"#utility.yul\":2681:2682   */\n      dup3\n        /* \"#utility.yul\":2676:2686   */\n      smod\n        /* \"#utility.yul\":2671:2686   */\n      swap1\n      pop\n        /* \"#utility.yul\":2518:2692   */\n      swap3\n      swap2\n      pop\n      pop\n      jump\t// out\n\n    auxdata: 0xa2646970667358221220a729e746c2734f7aed353da073fd8dbd91766d3aac47ebd30e11552b5281f60f64736f6c634300081a0033\n}\n",
				"bytecode": {
					"linkReferences": {},
					"object": "608060405260045f5560056001553480156017575f80fd5b50610490806100255f395ff3fe608060405234801561000f575f80fd5b5060043610610086575f3560e01c8063bcfe348911610059578063bcfe348914610102578063c4b35f3d14610120578063c6bfca731461013e578063d2c194f81461015c57610086565b80630dbe671f1461008a5780634df7e3d0146100a85780635e2c5962146100c657806367e06858146100e4575b5f80fd5b61009261017a565b60405161009f9190610258565b60405180910390f35b6100b061017f565b6040516100bd9190610258565b60405180910390f35b6100ce610185565b6040516100db9190610258565b60405180910390f35b6100ec6101a7565b6040516100f99190610258565b60405180910390f35b61010a6101c9565b6040516101179190610258565b60405180910390f35b6101286101eb565b6040516101359190610258565b60405180910390f35b61014661020d565b6040516101539190610258565b60405180910390f35b61016461021e565b6040516101719190610258565b60405180910390f35b5f5481565b60015481565b5f600360015f828254610198919061029e565b92505081905550600154905090565b5f600360015f8282546101ba9190610314565b92505081905550600154905090565b5f600360015f8282546101dc9190610355565b92505081905550600154905090565b5f600360015f8282546101fe91906103c2565b92505081905550600154905090565b5f6003600181905550600154905090565b5f600360015f828254610231919061042a565b92505081905550600154905090565b5f819050919050565b61025281610240565b82525050565b5f60208201905061026b5f830184610249565b92915050565b7f4e487b71000000000000000000000000000000000000000000000000000000005f52601160045260245ffd5b5f6102a882610240565b91506102b383610240565b92508282026102c181610240565b91507f800000000000000000000000000000000000000000000000000000000000000084145f841216156102f8576102f7610271565b5b828205841483151761030d5761030c610271565b5b5092915050565b5f61031e82610240565b915061032983610240565b92508282019050828112155f8312168382125f84121516171561034f5761034e610271565b5b92915050565b5f61035f82610240565b915061036a83610240565b925082820390508181125f8412168282135f85121516171561038f5761038e610271565b5b92915050565b7f4e487b71000000000000000000000000000000000000000000000000000000005f52601260045260245ffd5b5f6103cc82610240565b91506103d783610240565b9250826103e7576103e6610395565b5b60015f0383147f80000000000000000000000000000000000000000000000000000000000000008314161561041f5761041e610271565b5b828205905092915050565b5f61043482610240565b915061043f83610240565b92508261044f5761044e610395565b5b82820790509291505056fea2646970667358221220a729e746c2734f7aed353da073fd8dbd91766d3aac47ebd30e11552b5281f60f64736f6c634300081a0033",
					"opcodes": "PUSH1 0x80 PUSH1 0x40 MSTORE PUSH1 0x4 PUSH0 SSTORE PUSH1 0x5 PUSH1 0x1 SSTORE CALLVALUE DUP1 ISZERO PUSH1 0x17 JUMPI PUSH0 DUP1 REVERT JUMPDEST POP PUSH2 0x490 DUP1 PUSH2 0x25 PUSH0 CODECOPY PUSH0 RETURN INVALID PUSH1 0x80 PUSH1 0x40 MSTORE CALLVALUE DUP1 ISZERO PUSH2 0xF JUMPI PUSH0 DUP1 REVERT JUMPDEST POP PUSH1 0x4 CALLDATASIZE LT PUSH2 0x86 JUMPI PUSH0 CALLDATALOAD PUSH1 0xE0 SHR DUP1 PUSH4 0xBCFE3489 GT PUSH2 0x59 JUMPI DUP1 PUSH4 0xBCFE3489 EQ PUSH2 0x102 JUMPI DUP1 PUSH4 0xC4B35F3D EQ PUSH2 0x120 JUMPI DUP1 PUSH4 0xC6BFCA73 EQ PUSH2 0x13E JUMPI DUP1 PUSH4 0xD2C194F8 EQ PUSH2 0x15C JUMPI PUSH2 0x86 JUMP JUMPDEST DUP1 PUSH4 0xDBE671F EQ PUSH2 0x8A JUMPI DUP1 PUSH4 0x4DF7E3D0 EQ PUSH2 0xA8 JUMPI DUP1 PUSH4 0x5E2C5962 EQ PUSH2 0xC6 JUMPI DUP1 PUSH4 0x67E06858 EQ PUSH2 0xE4 JUMPI JUMPDEST PUSH0 DUP1 REVERT JUMPDEST PUSH2 0x92 PUSH2 0x17A JUMP JUMPDEST PUSH1 0x40 MLOAD PUSH2 0x9F SWAP2 SWAP1 PUSH2 0x258 JUMP JUMPDEST PUSH1 0x40 MLOAD DUP1 SWAP2 SUB SWAP1 RETURN JUMPDEST PUSH2 0xB0 PUSH2 0x17F JUMP JUMPDEST PUSH1 0x40 MLOAD PUSH2 0xBD SWAP2 SWAP1 PUSH2 0x258 JUMP JUMPDEST PUSH1 0x40 MLOAD DUP1 SWAP2 SUB SWAP1 RETURN JUMPDEST PUSH2 0xCE PUSH2 0x185 JUMP JUMPDEST PUSH1 0x40 MLOAD PUSH2 0xDB SWAP2 SWAP1 PUSH2 0x258 JUMP JUMPDEST PUSH1 0x40 MLOAD DUP1 SWAP2 SUB SWAP1 RETURN JUMPDEST PUSH2 0xEC PUSH2 0x1A7 JUMP JUMPDEST PUSH1 0x40 MLOAD PUSH2 0xF9 SWAP2 SWAP1 PUSH2 0x258 JUMP JUMPDEST PUSH1 0x40 MLOAD DUP1 SWAP2 SUB SWAP1 RETURN JUMPDEST PUSH2 0x10A PUSH2 0x1C9 JUMP JUMPDEST PUSH1 0x40 MLOAD PUSH2 0x117 SWAP2 SWAP1 PUSH2 0x258 JUMP JUMPDEST PUSH1 0x40 MLOAD DUP1 SWAP2 SUB SWAP1 RETURN JUMPDEST PUSH2 0x128 PUSH2 0x1EB JUMP JUMPDEST PUSH1 0x40 MLOAD PUSH2 0x135 SWAP2 SWAP1 PUSH2 0x258 JUMP JUMPDEST PUSH1 0x40 MLOAD DUP1 SWAP2 SUB SWAP1 RETURN JUMPDEST PUSH2 0x146 PUSH2 0x20D JUMP JUMPDEST PUSH1 0x40 MLOAD PUSH2 0x153 SWAP2 SWAP1 PUSH2 0x258 JUMP JUMPDEST PUSH1 0x40 MLOAD DUP1 SWAP2 SUB SWAP1 RETURN JUMPDEST PUSH2 0x164 PUSH2 0x21E JUMP JUMPDEST PUSH1 0x40 MLOAD PUSH2 0x171 SWAP2 SWAP1 PUSH2 0x258 JUMP JUMPDEST PUSH1 0x40 MLOAD DUP1 SWAP2 SUB SWAP1 RETURN JUMPDEST PUSH0 SLOAD DUP2 JUMP JUMPDEST PUSH1 0x1 SLOAD DUP2 JUMP JUMPDEST PUSH0 PUSH1 0x3 PUSH1 0x1 PUSH0 DUP3 DUP3 SLOAD PUSH2 0x198 SWAP2 SWAP1 PUSH2 0x29E JUMP JUMPDEST SWAP3 POP POP DUP2 SWAP1 SSTORE POP PUSH1 0x1 SLOAD SWAP1 POP SWAP1 JUMP JUMPDEST PUSH0 PUSH1 0x3 PUSH1 0x1 PUSH0 DUP3 DUP3 SLOAD PUSH2 0x1BA SWAP2 SWAP1 PUSH2 0x314 JUMP JUMPDEST SWAP3 POP POP DUP2 SWAP1 SSTORE POP PUSH1 0x1 SLOAD SWAP1 POP SWAP1 JUMP JUMPDEST PUSH0 PUSH1 0x3 PUSH1 0x1 PUSH0 DUP3 DUP3 SLOAD PUSH2 0x1DC SWAP2 SWAP1 PUSH2 0x355 JUMP JUMPDEST SWAP3 POP POP DUP2 SWAP1 SSTORE POP PUSH1 0x1 SLOAD SWAP1 POP SWAP1 JUMP JUMPDEST PUSH0 PUSH1 0x3 PUSH1 0x1 PUSH0 DUP3 DUP3 SLOAD PUSH2 0x1FE SWAP2 SWAP1 PUSH2 0x3C2 JUMP JUMPDEST SWAP3 POP POP DUP2 SWAP1 SSTORE POP PUSH1 0x1 SLOAD SWAP1 POP SWAP1 JUMP JUMPDEST PUSH0 PUSH1 0x3 PUSH1 0x1 DUP2 SWAP1 SSTORE POP PUSH1 0x1 SLOAD SWAP1 POP SWAP1 JUMP JUMPDEST PUSH0 PUSH1 0x3 PUSH1 0x1 PUSH0 DUP3 DUP3 SLOAD PUSH2 0x231 SWAP2 SWAP1 PUSH2 0x42A JUMP JUMPDEST SWAP3 POP POP DUP2 SWAP1 SSTORE POP PUSH1 0x1 SLOAD SWAP1 POP SWAP1 JUMP JUMPDEST PUSH0 DUP2 SWAP1 POP SWAP2 SWAP1 POP JUMP JUMPDEST PUSH2 0x252 DUP2 PUSH2 0x240 JUMP JUMPDEST DUP3 MSTORE POP POP JUMP JUMPDEST PUSH0 PUSH1 0x20 DUP3 ADD SWAP1 POP PUSH2 0x26B PUSH0 DUP4 ADD DUP5 PUSH2 0x249 JUMP JUMPDEST SWAP3 SWAP2 POP POP JUMP JUMPDEST PUSH32 0x4E487B7100000000000000000000000000000000000000000000000000000000 PUSH0 MSTORE PUSH1 0x11 PUSH1 0x4 MSTORE PUSH1 0x24 PUSH0 REVERT JUMPDEST PUSH0 PUSH2 0x2A8 DUP3 PUSH2 0x240 JUMP JUMPDEST SWAP2 POP PUSH2 0x2B3 DUP4 PUSH2 0x240 JUMP JUMPDEST SWAP3 POP DUP3 DUP3 MUL PUSH2 0x2C1 DUP2 PUSH2 0x240 JUMP JUMPDEST SWAP2 POP PUSH32 0x8000000000000000000000000000000000000000000000000000000000000000 DUP5 EQ PUSH0 DUP5 SLT AND ISZERO PUSH2 0x2F8 JUMPI PUSH2 0x2F7 PUSH2 0x271 JUMP JUMPDEST JUMPDEST DUP3 DUP3 SDIV DUP5 EQ DUP4 ISZERO OR PUSH2 0x30D JUMPI PUSH2 0x30C PUSH2 0x271 JUMP JUMPDEST JUMPDEST POP SWAP3 SWAP2 POP POP JUMP JUMPDEST PUSH0 PUSH2 0x31E DUP3 PUSH2 0x240 JUMP JUMPDEST SWAP2 POP PUSH2 0x329 DUP4 PUSH2 0x240 JUMP JUMPDEST SWAP3 POP DUP3 DUP3 ADD SWAP1 POP DUP3 DUP2 SLT ISZERO PUSH0 DUP4 SLT AND DUP4 DUP3 SLT PUSH0 DUP5 SLT ISZERO AND OR ISZERO PUSH2 0x34F JUMPI PUSH2 0x34E PUSH2 0x271 JUMP JUMPDEST JUMPDEST SWAP3 SWAP2 POP POP JUMP JUMPDEST PUSH0 PUSH2 0x35F DUP3 PUSH2 0x240 JUMP JUMPDEST SWAP2 POP PUSH2 0x36A DUP4 PUSH2 0x240 JUMP JUMPDEST SWAP3 POP DUP3 DUP3 SUB SWAP1 POP DUP2 DUP2 SLT PUSH0 DUP5 SLT AND DUP3 DUP3 SGT PUSH0 DUP6 SLT ISZERO AND OR ISZERO PUSH2 0x38F JUMPI PUSH2 0x38E PUSH2 0x271 JUMP JUMPDEST JUMPDEST SWAP3 SWAP2 POP POP JUMP JUMPDEST PUSH32 0x4E487B7100000000000000000000000000000000000000000000000000000000 PUSH0 MSTORE PUSH1 0x12 PUSH1 0x4 MSTORE PUSH1 0x24 PUSH0 REVERT JUMPDEST PUSH0 PUSH2 0x3CC DUP3 PUSH2 0x240 JUMP JUMPDEST SWAP2 POP PUSH2 0x3D7 DUP4 PUSH2 0x240 JUMP JUMPDEST SWAP3 POP DUP3 PUSH2 0x3E7 JUMPI PUSH2 0x3E6 PUSH2 0x395 JUMP JUMPDEST JUMPDEST PUSH1 0x1 PUSH0 SUB DUP4 EQ PUSH32 0x8000000000000000000000000000000000000000000000000000000000000000 DUP4 EQ AND ISZERO PUSH2 0x41F JUMPI PUSH2 0x41E PUSH2 0x271 JUMP JUMPDEST JUMPDEST DUP3 DUP3 SDIV SWAP1 POP SWAP3 SWAP2 POP POP JUMP JUMPDEST PUSH0 PUSH2 0x434 DUP3 PUSH2 0x240 JUMP JUMPDEST SWAP2 POP PUSH2 0x43F DUP4 PUSH2 0x240 JUMP JUMPDEST SWAP3 POP DUP3 PUSH2 0x44F JUMPI PUSH2 0x44E PUSH2 0x395 JUMP JUMPDEST JUMPDEST DUP3 DUP3 SMOD SWAP1 POP SWAP3 SWAP2 POP POP JUMP INVALID LOG2 PUSH5 0x6970667358 0x22 SLT KECCAK256 0xA7 0x29 0xE7 CHAINID 0xC2 PUSH20 0x4F7AED353DA073FD8DBD91766D3AAC47EBD30E11 SSTORE 0x2B MSTORE DUP2 0xF6 0xF PUSH5 0x736F6C6343 STOP ADDMOD BYTE STOP CALLER "
				},
				"gasEstimates": {
					"creation": {
						"codeDepositCost": "233600",
						"executionCost": "44484",
						"totalCost": "278084"
					},
					"external": {
						"Add()": "infinite",
						"DIV()": "infinite",
						"Equal()": "24590",
						"MOD()": "infinite",
						"MULT()": "infinite",
						"SUB()": "infinite",
						"a()": "2425",
						"b()": "2448"
					}
				},
				"methodIdentifiers": {
					"Add()": "67e06858",
					"DIV()": "c4b35f3d",
					"Equal()": "c6bfca73",
					"MOD()": "d2c194f8",
					"MULT()": "5e2c5962",
					"SUB()": "bcfe3489",
					"a()": "0dbe671f",
					"b()": "4df7e3d0"
				}
			},
			"storageLayout": {
				"storage": [
					{
						"astId": 4,
						"contract": "AssignmentOperator.sol:operators",
						"label": "a",
						"offset": 0,
						"slot": "0",
						"type": "t_int256"
					},
					{
						"astId": 7,
						"contract": "AssignmentOperator.sol:operators",
						"label": "b",
						"offset": 0,
						"slot": "1",
						"type": "t_int256"
					}
				],
				"types": {
					"t_int256": {
						"encoding": "inplace",
						"label": "int256",
						"numberOfBytes": "32"
					}
				}
			},
			"userdoc": {
				"kind": "user",
				"methods": {},
				"version": 1
			}
		}
	}
}