{
	"BitwiseOperator.sol": {
		"operators": {
			"abi": [
				{
					"inputs": [],
					"name": "BitwiseAdd",
					"outputs": [
						{
							"internalType": "int256",
							"name": "",
							"type": "int256"
						}
					],
					"stateMutability": "view",
					"type": "function"
				},
				{
					"inputs": [],
					"name": "BitwiseLEFTSHIFT",
					"outputs": [
						{
							"internalType": "uint256",
							"name": "",
							"type": "uint256"
						}
					],
					"stateMutability": "view",
					"type": "function"
				},
				{
					"inputs": [],
					"name": "BitwiseNOT",
					"outputs": [
						{
							"internalType": "int256",
							"name": "",
							"type": "int256"
						}
					],
					"stateMutability": "view",
					"type": "function"
				},
				{
					"inputs": [],
					"name": "BitwiseOR",
					"outputs": [
						{
							"internalType": "int256",
							"name": "",
							"type": "int256"
						}
					],
					"stateMutability": "view",
					"type": "function"
				},
				{
					"inputs": [],
					"name": "BitwiseRIGHTSHIFT",
					"outputs": [
						{
							"internalType": "uint256",
							"name": "",
							"type": "uint256"
						}
					],
					"stateMutability": "view",
					"type": "function"
				},
				{
					"inputs": [],
					"name": "BitwiseXOR",
					"outputs": [
						{
							"internalType": "int256",
							"name": "",
							"type": "int256"
						}
					],
					"stateMutability": "view",
					"type": "function"
				},
				{
					"inputs": [],
					"name": "a",
					"outputs": [
						{
							"internalType": "int256",
							"name": "",
							"type": "int256"
						}
					],
					"stateMutability": "view",
					"type": "function"
				},
				{
					"inputs": [],
					"name": "b",
					"outputs": [
						{
							"internalType": "int256",
							"name": "",
							"type": "int256"
						}
					],
					"stateMutability": "view",
					"type": "function"
				},
				{
					"inputs": [],
					"name": "c",
					"outputs": [
						{
							"internalType": "uint256",
							"name": "",
							"type": "uint256"
						}
					],
					"stateMutability": "view",
					"type": "function"
				},
				{
					"inputs": [],
					"name": "d",
					"outputs": [
						{
							"internalType": "uint256",
							"name": "",
							"type": "uint256"
						}
					],
					"stateMutability": "view",
					"type": "function"
				}
			],
			"devdoc": {
				"kind": "dev",
				"methods": {},
				"version": 1
			},
			"evm": {
				"assembly": "    /* \"BitwiseOperator.sol\":70:726  contract operators {... */\n  mstore(0x40, 0x80)\n    /* \"BitwiseOperator.sol\":111:112  4 */\n  0x04\n    /* \"BitwiseOperator.sol\":96:112  int public a = 4 */\n  0x00\n  sstore\n    /* \"BitwiseOperator.sol\":132:133  5 */\n  0x05\n    /* \"BitwiseOperator.sol\":119:133  int public b=5 */\n  0x01\n  sstore\n    /* \"BitwiseOperator.sol\":156:157  6 */\n  0x06\n    /* \"BitwiseOperator.sol\":140:157  uint public c = 6 */\n  0x02\n  sstore\n    /* \"BitwiseOperator.sol\":180:181  7 */\n  0x07\n    /* \"BitwiseOperator.sol\":164:181  uint public d = 7 */\n  0x03\n  sstore\n    /* \"BitwiseOperator.sol\":70:726  contract operators {... */\n  callvalue\n  dup1\n  iszero\n  tag_1\n  jumpi\n  0x00\n  dup1\n  revert\ntag_1:\n  pop\n  dataSize(sub_0)\n  dup1\n  dataOffset(sub_0)\n  0x00\n  codecopy\n  0x00\n  return\nstop\n\nsub_0: assembly {\n        /* \"BitwiseOperator.sol\":70:726  contract operators {... */\n      mstore(0x40, 0x80)\n      callvalue\n      dup1\n      iszero\n      tag_1\n      jumpi\n      0x00\n      dup1\n      revert\n    tag_1:\n      pop\n      jumpi(tag_2, lt(calldatasize, 0x04))\n      shr(0xe0, calldataload(0x00))\n      dup1\n      0x8c1d7095\n      gt\n      tag_13\n      jumpi\n      dup1\n      0x8c1d7095\n      eq\n      tag_8\n      jumpi\n      dup1\n      0x9a1b6c6b\n      eq\n      tag_9\n      jumpi\n      dup1\n      0xa5fedf21\n      eq\n      tag_10\n      jumpi\n      dup1\n      0xb9153d73\n      eq\n      tag_11\n      jumpi\n      dup1\n      0xc3da42b8\n      eq\n      tag_12\n      jumpi\n      jump(tag_2)\n    tag_13:\n      dup1\n      0x0dbe671f\n      eq\n      tag_3\n      jumpi\n      dup1\n      0x4df7e3d0\n      eq\n      tag_4\n      jumpi\n      dup1\n      0x79e11397\n      eq\n      tag_5\n      jumpi\n      dup1\n      0x7e529f20\n      eq\n      tag_6\n      jumpi\n      dup1\n      0x8a054ac2\n      eq\n      tag_7\n      jumpi\n    tag_2:\n      0x00\n      dup1\n      revert\n        /* \"BitwiseOperator.sol\":96:112  int public a = 4 */\n    tag_3:\n      tag_14\n      tag_15\n      jump\t// in\n    tag_14:\n      mload(0x40)\n      tag_16\n      swap2\n      swap1\n      tag_17\n      jump\t// in\n    tag_16:\n      mload(0x40)\n      dup1\n      swap2\n      sub\n      swap1\n      return\n        /* \"BitwiseOperator.sol\":119:133  int public b=5 */\n    tag_4:\n      tag_18\n      tag_19\n      jump\t// in\n    tag_18:\n      mload(0x40)\n      tag_20\n      swap2\n      swap1\n      tag_17\n      jump\t// in\n    tag_20:\n      mload(0x40)\n      dup1\n      swap2\n      sub\n      swap1\n      return\n        /* \"BitwiseOperator.sol\":646:723  function BitwiseNOT() public view returns(int) {... */\n    tag_5:\n      tag_21\n      tag_22\n      jump\t// in\n    tag_21:\n      mload(0x40)\n      tag_23\n      swap2\n      swap1\n      tag_17\n      jump\t// in\n    tag_23:\n      mload(0x40)\n      dup1\n      swap2\n      sub\n      swap1\n      return\n        /* \"BitwiseOperator.sol\":190:270  function BitwiseAdd() public view returns(int) {... */\n    tag_6:\n      tag_24\n      tag_25\n      jump\t// in\n    tag_24:\n      mload(0x40)\n      tag_26\n      swap2\n      swap1\n      tag_17\n      jump\t// in\n    tag_26:\n      mload(0x40)\n      dup1\n      swap2\n      sub\n      swap1\n      return\n        /* \"BitwiseOperator.sol\":164:181  uint public d = 7 */\n    tag_7:\n      tag_27\n      tag_28\n      jump\t// in\n    tag_27:\n      mload(0x40)\n      tag_29\n      swap2\n      swap1\n      tag_30\n      jump\t// in\n    tag_29:\n      mload(0x40)\n      dup1\n      swap2\n      sub\n      swap1\n      return\n        /* \"BitwiseOperator.sol\":453:541  function BitwiseLEFTSHIFT() public view returns(uint) {... */\n    tag_8:\n      tag_31\n      tag_32\n      jump\t// in\n    tag_31:\n      mload(0x40)\n      tag_33\n      swap2\n      swap1\n      tag_30\n      jump\t// in\n    tag_33:\n      mload(0x40)\n      dup1\n      swap2\n      sub\n      swap1\n      return\n        /* \"BitwiseOperator.sol\":549:638  function BitwiseRIGHTSHIFT() public view returns(uint) {... */\n    tag_9:\n      tag_34\n      tag_35\n      jump\t// in\n    tag_34:\n      mload(0x40)\n      tag_36\n      swap2\n      swap1\n      tag_30\n      jump\t// in\n    tag_36:\n      mload(0x40)\n      dup1\n      swap2\n      sub\n      swap1\n      return\n        /* \"BitwiseOperator.sol\":278:357  function BitwiseOR() public view returns(int) {... */\n    tag_10:\n      tag_37\n      tag_38\n      jump\t// in\n    tag_37:\n      mload(0x40)\n      tag_39\n      swap2\n      swap1\n      tag_17\n      jump\t// in\n    tag_39:\n      mload(0x40)\n      dup1\n      swap2\n      sub\n      swap1\n      return\n        /* \"BitwiseOperator.sol\":365:445  function BitwiseXOR() public view returns(int) {... */\n    tag_11:\n      tag_40\n      tag_41\n      jump\t// in\n    tag_40:\n      mload(0x40)\n      tag_42\n      swap2\n      swap1\n      tag_17\n      jump\t// in\n    tag_42:\n      mload(0x40)\n      dup1\n      swap2\n      sub\n      swap1\n      return\n        /* \"BitwiseOperator.sol\":140:157  uint public c = 6 */\n    tag_12:\n      tag_43\n      tag_44\n      jump\t// in\n    tag_43:\n      mload(0x40)\n      tag_45\n      swap2\n      swap1\n      tag_30\n      jump\t// in\n    tag_45:\n      mload(0x40)\n      dup1\n      swap2\n      sub\n      swap1\n      return\n        /* \"BitwiseOperator.sol\":96:112  int public a = 4 */\n    tag_15:\n      sload(0x00)\n      dup2\n      jump\t// out\n        /* \"BitwiseOperator.sol\":119:133  int public b=5 */\n    tag_19:\n      sload(0x01)\n      dup2\n      jump\t// out\n        /* \"BitwiseOperator.sol\":646:723  function BitwiseNOT() public view returns(int) {... */\n    tag_22:\n        /* \"BitwiseOperator.sol\":688:691  int */\n      0x00\n        /* \"BitwiseOperator.sol\":713:714  a */\n      dup1\n      sload\n        /* \"BitwiseOperator.sol\":712:714  ~a */\n      not\n        /* \"BitwiseOperator.sol\":704:715  return (~a) */\n      swap1\n      pop\n        /* \"BitwiseOperator.sol\":646:723  function BitwiseNOT() public view returns(int) {... */\n      swap1\n      jump\t// out\n        /* \"BitwiseOperator.sol\":190:270  function BitwiseAdd() public view returns(int) {... */\n    tag_25:\n        /* \"BitwiseOperator.sol\":232:235  int */\n      0x00\n        /* \"BitwiseOperator.sol\":260:261  b */\n      sload(0x01)\n        /* \"BitwiseOperator.sol\":256:257  a */\n      sload(0x00)\n        /* \"BitwiseOperator.sol\":256:261  a & b */\n      and\n        /* \"BitwiseOperator.sol\":248:262  return (a & b) */\n      swap1\n      pop\n        /* \"BitwiseOperator.sol\":190:270  function BitwiseAdd() public view returns(int) {... */\n      swap1\n      jump\t// out\n        /* \"BitwiseOperator.sol\":164:181  uint public d = 7 */\n    tag_28:\n      sload(0x03)\n      dup2\n      jump\t// out\n        /* \"BitwiseOperator.sol\":453:541  function BitwiseLEFTSHIFT() public view returns(uint) {... */\n    tag_32:\n        /* \"BitwiseOperator.sol\":501:505  uint */\n      0x00\n        /* \"BitwiseOperator.sol\":531:532  d */\n      sload(0x03)\n        /* \"BitwiseOperator.sol\":526:527  c */\n      sload(0x02)\n        /* \"BitwiseOperator.sol\":526:532  c << d */\n      swap1\n      shl\n        /* \"BitwiseOperator.sol\":518:533  return (c << d) */\n      swap1\n      pop\n        /* \"BitwiseOperator.sol\":453:541  function BitwiseLEFTSHIFT() public view returns(uint) {... */\n      swap1\n      jump\t// out\n        /* \"BitwiseOperator.sol\":549:638  function BitwiseRIGHTSHIFT() public view returns(uint) {... */\n    tag_35:\n        /* \"BitwiseOperator.sol\":598:602  uint */\n      0x00\n        /* \"BitwiseOperator.sol\":628:629  d */\n      sload(0x03)\n        /* \"BitwiseOperator.sol\":623:624  c */\n      sload(0x02)\n        /* \"BitwiseOperator.sol\":623:629  c >> d */\n      swap1\n      shr\n        /* \"BitwiseOperator.sol\":615:630  return (c >> d) */\n      swap1\n      pop\n        /* \"BitwiseOperator.sol\":549:638  function BitwiseRIGHTSHIFT() public view returns(uint) {... */\n      swap1\n      jump\t// out\n        /* \"BitwiseOperator.sol\":278:357  function BitwiseOR() public view returns(int) {... */\n    tag_38:\n        /* \"BitwiseOperator.sol\":319:322  int */\n      0x00\n        /* \"BitwiseOperator.sol\":347:348  b */\n      sload(0x01)\n        /* \"BitwiseOperator.sol\":343:344  a */\n      sload(0x00)\n        /* \"BitwiseOperator.sol\":343:348  a | b */\n      or\n        /* \"BitwiseOperator.sol\":335:349  return (a | b) */\n      swap1\n      pop\n        /* \"BitwiseOperator.sol\":278:357  function BitwiseOR() public view returns(int) {... */\n      swap1\n      jump\t// out\n        /* \"BitwiseOperator.sol\":365:445  function BitwiseXOR() public view returns(int) {... */\n    tag_41:\n        /* \"BitwiseOperator.sol\":407:410  int */\n      0x00\n        /* \"BitwiseOperator.sol\":435:436  b */\n      sload(0x01)\n        /* \"BitwiseOperator.sol\":431:432  a */\n      sload(0x00)\n        /* \"BitwiseOperator.sol\":431:436  a ^ b */\n      xor\n        /* \"BitwiseOperator.sol\":423:437  return (a ^ b) */\n      swap1\n      pop\n        /* \"BitwiseOperator.sol\":365:445  function BitwiseXOR() public view returns(int) {... */\n      swap1\n      jump\t// out\n        /* \"BitwiseOperator.sol\":140:157  uint public c = 6 */\n    tag_44:\n      sload(0x02)\n      dup2\n      jump\t// out\n        /* \"#utility.yul\":7:83   */\n    tag_52:\n        /* \"#utility.yul\":43:50   */\n      0x00\n        /* \"#utility.yul\":72:77   */\n      dup2\n        /* \"#utility.yul\":61:77   */\n      swap1\n      pop\n        /* \"#utility.yul\":7:83   */\n      swap2\n      swap1\n      pop\n      jump\t// out\n        /* \"#utility.yul\":89:204   */\n    tag_53:\n        /* \"#utility.yul\":174:197   */\n      tag_59\n        /* \"#utility.yul\":191:196   */\n      dup2\n        /* \"#utility.yul\":174:197   */\n      tag_52\n      jump\t// in\n    tag_59:\n        /* \"#utility.yul\":169:172   */\n      dup3\n        /* \"#utility.yul\":162:198   */\n      mstore\n        /* \"#utility.yul\":89:204   */\n      pop\n      pop\n      jump\t// out\n        /* \"#utility.yul\":210:428   */\n    tag_17:\n        /* \"#utility.yul\":301:305   */\n      0x00\n        /* \"#utility.yul\":339:341   */\n      0x20\n        /* \"#utility.yul\":328:337   */\n      dup3\n        /* \"#utility.yul\":324:342   */\n      add\n        /* \"#utility.yul\":316:342   */\n      swap1\n      pop\n        /* \"#utility.yul\":352:421   */\n      tag_61\n        /* \"#utility.yul\":418:419   */\n      0x00\n        /* \"#utility.yul\":407:416   */\n      dup4\n        /* \"#utility.yul\":403:420   */\n      add\n        /* \"#utility.yul\":394:400   */\n      dup5\n        /* \"#utility.yul\":352:421   */\n      tag_53\n      jump\t// in\n    tag_61:\n        /* \"#utility.yul\":210:428   */\n      swap3\n      swap2\n      pop\n      pop\n      jump\t// out\n        /* \"#utility.yul\":434:511   */\n    tag_54:\n        /* \"#utility.yul\":471:478   */\n      0x00\n        /* \"#utility.yul\":500:505   */\n      dup2\n        /* \"#utility.yul\":489:505   */\n      swap1\n      pop\n        /* \"#utility.yul\":434:511   */\n      swap2\n      swap1\n      pop\n      jump\t// out\n        /* \"#utility.yul\":517:635   */\n    tag_55:\n        /* \"#utility.yul\":604:628   */\n      tag_64\n        /* \"#utility.yul\":622:627   */\n      dup2\n        /* \"#utility.yul\":604:628   */\n      tag_54\n      jump\t// in\n    tag_64:\n        /* \"#utility.yul\":599:602   */\n      dup3\n        /* \"#utility.yul\":592:629   */\n      mstore\n        /* \"#utility.yul\":517:635   */\n      pop\n      pop\n      jump\t// out\n        /* \"#utility.yul\":641:863   */\n    tag_30:\n        /* \"#utility.yul\":734:738   */\n      0x00\n        /* \"#utility.yul\":772:774   */\n      0x20\n        /* \"#utility.yul\":761:770   */\n      dup3\n        /* \"#utility.yul\":757:775   */\n      add\n        /* \"#utility.yul\":749:775   */\n      swap1\n      pop\n        /* \"#utility.yul\":785:856   */\n      tag_66\n        /* \"#utility.yul\":853:854   */\n      0x00\n        /* \"#utility.yul\":842:851   */\n      dup4\n        /* \"#utility.yul\":838:855   */\n      add\n        /* \"#utility.yul\":829:835   */\n      dup5\n        /* \"#utility.yul\":785:856   */\n      tag_55\n      jump\t// in\n    tag_66:\n        /* \"#utility.yul\":641:863   */\n      swap3\n      swap2\n      pop\n      pop\n      jump\t// out\n\n    auxdata: 0xa264697066735822122011a62d6b11bd731942d66ef6d8d81a78390556c8b0732ac3d631c653cfc9251764736f6c634300081a0033\n}\n",
				"bytecode": {
					"linkReferences": {},
					"object": "608060405260045f556005600155600660025560076003553480156021575f80fd5b506102c48061002f5f395ff3fe608060405234801561000f575f80fd5b506004361061009c575f3560e01c80638c1d7095116100645780638c1d7095146101365780639a1b6c6b14610154578063a5fedf2114610172578063b9153d7314610190578063c3da42b8146101ae5761009c565b80630dbe671f146100a05780634df7e3d0146100be57806379e11397146100dc5780637e529f20146100fa5780638a054ac214610118575b5f80fd5b6100a86101cc565b6040516100b59190610244565b60405180910390f35b6100c66101d1565b6040516100d39190610244565b60405180910390f35b6100e46101d7565b6040516100f19190610244565b60405180910390f35b6101026101e0565b60405161010f9190610244565b60405180910390f35b6101206101ec565b60405161012d9190610275565b60405180910390f35b61013e6101f2565b60405161014b9190610275565b60405180910390f35b61015c610200565b6040516101699190610275565b60405180910390f35b61017a61020e565b6040516101879190610244565b60405180910390f35b61019861021a565b6040516101a59190610244565b60405180910390f35b6101b6610226565b6040516101c39190610275565b60405180910390f35b5f5481565b60015481565b5f805419905090565b5f6001545f5416905090565b60035481565b5f600354600254901b905090565b5f600354600254901c905090565b5f6001545f5417905090565b5f6001545f5418905090565b60025481565b5f819050919050565b61023e8161022c565b82525050565b5f6020820190506102575f830184610235565b92915050565b5f819050919050565b61026f8161025d565b82525050565b5f6020820190506102885f830184610266565b9291505056fea264697066735822122011a62d6b11bd731942d66ef6d8d81a78390556c8b0732ac3d631c653cfc9251764736f6c634300081a0033",
					"opcodes": "PUSH1 0x80 PUSH1 0x40 MSTORE PUSH1 0x4 PUSH0 SSTORE PUSH1 0x5 PUSH1 0x1 SSTORE PUSH1 0x6 PUSH1 0x2 SSTORE PUSH1 0x7 PUSH1 0x3 SSTORE CALLVALUE DUP1 ISZERO PUSH1 0x21 JUMPI PUSH0 DUP1 REVERT JUMPDEST POP PUSH2 0x2C4 DUP1 PUSH2 0x2F PUSH0 CODECOPY PUSH0 RETURN INVALID PUSH1 0x80 PUSH1 0x40 MSTORE CALLVALUE DUP1 ISZERO PUSH2 0xF JUMPI PUSH0 DUP1 REVERT JUMPDEST POP PUSH1 0x4 CALLDATASIZE LT PUSH2 0x9C JUMPI PUSH0 CALLDATALOAD PUSH1 0xE0 SHR DUP1 PUSH4 0x8C1D7095 GT PUSH2 0x64 JUMPI DUP1 PUSH4 0x8C1D7095 EQ PUSH2 0x136 JUMPI DUP1 PUSH4 0x9A1B6C6B EQ PUSH2 0x154 JUMPI DUP1 PUSH4 0xA5FEDF21 EQ PUSH2 0x172 JUMPI DUP1 PUSH4 0xB9153D73 EQ PUSH2 0x190 JUMPI DUP1 PUSH4 0xC3DA42B8 EQ PUSH2 0x1AE JUMPI PUSH2 0x9C JUMP JUMPDEST DUP1 PUSH4 0xDBE671F EQ PUSH2 0xA0 JUMPI DUP1 PUSH4 0x4DF7E3D0 EQ PUSH2 0xBE JUMPI DUP1 PUSH4 0x79E11397 EQ PUSH2 0xDC JUMPI DUP1 PUSH4 0x7E529F20 EQ PUSH2 0xFA JUMPI DUP1 PUSH4 0x8A054AC2 EQ PUSH2 0x118 JUMPI JUMPDEST PUSH0 DUP1 REVERT JUMPDEST PUSH2 0xA8 PUSH2 0x1CC JUMP JUMPDEST PUSH1 0x40 MLOAD PUSH2 0xB5 SWAP2 SWAP1 PUSH2 0x244 JUMP JUMPDEST PUSH1 0x40 MLOAD DUP1 SWAP2 SUB SWAP1 RETURN JUMPDEST PUSH2 0xC6 PUSH2 0x1D1 JUMP JUMPDEST PUSH1 0x40 MLOAD PUSH2 0xD3 SWAP2 SWAP1 PUSH2 0x244 JUMP JUMPDEST PUSH1 0x40 MLOAD DUP1 SWAP2 SUB SWAP1 RETURN JUMPDEST PUSH2 0xE4 PUSH2 0x1D7 JUMP JUMPDEST PUSH1 0x40 MLOAD PUSH2 0xF1 SWAP2 SWAP1 PUSH2 0x244 JUMP JUMPDEST PUSH1 0x40 MLOAD DUP1 SWAP2 SUB SWAP1 RETURN JUMPDEST PUSH2 0x102 PUSH2 0x1E0 JUMP JUMPDEST PUSH1 0x40 MLOAD PUSH2 0x10F SWAP2 SWAP1 PUSH2 0x244 JUMP JUMPDEST PUSH1 0x40 MLOAD DUP1 SWAP2 SUB SWAP1 RETURN JUMPDEST PUSH2 0x120 PUSH2 0x1EC JUMP JUMPDEST PUSH1 0x40 MLOAD PUSH2 0x12D SWAP2 SWAP1 PUSH2 0x275 JUMP JUMPDEST PUSH1 0x40 MLOAD DUP1 SWAP2 SUB SWAP1 RETURN JUMPDEST PUSH2 0x13E PUSH2 0x1F2 JUMP JUMPDEST PUSH1 0x40 MLOAD PUSH2 0x14B SWAP2 SWAP1 PUSH2 0x275 JUMP JUMPDEST PUSH1 0x40 MLOAD DUP1 SWAP2 SUB SWAP1 RETURN JUMPDEST PUSH2 0x15C PUSH2 0x200 JUMP JUMPDEST PUSH1 0x40 MLOAD PUSH2 0x169 SWAP2 SWAP1 PUSH2 0x275 JUMP JUMPDEST PUSH1 0x40 MLOAD DUP1 SWAP2 SUB SWAP1 RETURN JUMPDEST PUSH2 0x17A PUSH2 0x20E JUMP JUMPDEST PUSH1 0x40 MLOAD PUSH2 0x187 SWAP2 SWAP1 PUSH2 0x244 JUMP JUMPDEST PUSH1 0x40 MLOAD DUP1 SWAP2 SUB SWAP1 RETURN JUMPDEST PUSH2 0x198 PUSH2 0x21A JUMP JUMPDEST PUSH1 0x40 MLOAD PUSH2 0x1A5 SWAP2 SWAP1 PUSH2 0x244 JUMP JUMPDEST PUSH1 0x40 MLOAD DUP1 SWAP2 SUB SWAP1 RETURN JUMPDEST PUSH2 0x1B6 PUSH2 0x226 JUMP JUMPDEST PUSH1 0x40 MLOAD PUSH2 0x1C3 SWAP2 SWAP1 PUSH2 0x275 JUMP JUMPDEST PUSH1 0x40 MLOAD DUP1 SWAP2 SUB SWAP1 RETURN JUMPDEST PUSH0 SLOAD DUP2 JUMP JUMPDEST PUSH1 0x1 SLOAD DUP2 JUMP JUMPDEST PUSH0 DUP1 SLOAD NOT SWAP1 POP SWAP1 JUMP JUMPDEST PUSH0 PUSH1 0x1 SLOAD PUSH0 SLOAD AND SWAP1 POP SWAP1 JUMP JUMPDEST PUSH1 0x3 SLOAD DUP2 JUMP JUMPDEST PUSH0 PUSH1 0x3 SLOAD PUSH1 0x2 SLOAD SWAP1 SHL SWAP1 POP SWAP1 JUMP JUMPDEST PUSH0 PUSH1 0x3 SLOAD PUSH1 0x2 SLOAD SWAP1 SHR SWAP1 POP SWAP1 JUMP JUMPDEST PUSH0 PUSH1 0x1 SLOAD PUSH0 SLOAD OR SWAP1 POP SWAP1 JUMP JUMPDEST PUSH0 PUSH1 0x1 SLOAD PUSH0 SLOAD XOR SWAP1 POP SWAP1 JUMP JUMPDEST PUSH1 0x2 SLOAD DUP2 JUMP JUMPDEST PUSH0 DUP2 SWAP1 POP SWAP2 SWAP1 POP JUMP JUMPDEST PUSH2 0x23E DUP2 PUSH2 0x22C JUMP JUMPDEST DUP3 MSTORE POP POP JUMP JUMPDEST PUSH0 PUSH1 0x20 DUP3 ADD SWAP1 POP PUSH2 0x257 PUSH0 DUP4 ADD DUP5 PUSH2 0x235 JUMP JUMPDEST SWAP3 SWAP2 POP POP JUMP JUMPDEST PUSH0 DUP2 SWAP1 POP SWAP2 SWAP1 POP JUMP JUMPDEST PUSH2 0x26F DUP2 PUSH2 0x25D JUMP JUMPDEST DUP3 MSTORE POP POP JUMP JUMPDEST PUSH0 PUSH1 0x20 DUP3 ADD SWAP1 POP PUSH2 0x288 PUSH0 DUP4 ADD DUP5 PUSH2 0x266 JUMP JUMPDEST SWAP3 SWAP2 POP POP JUMP INVALID LOG2 PUSH5 0x6970667358 0x22 SLT KECCAK256 GT 0xA6 0x2D PUSH12 0x11BD731942D66EF6D8D81A78 CODECOPY SDIV JUMP 0xC8 0xB0 PUSH20 0x2AC3D631C653CFC9251764736F6C634300081A00 CALLER "
				},
				"gasEstimates": {
					"creation": {
						"codeDepositCost": "141600",
						"executionCost": "88611",
						"totalCost": "230211"
					},
					"external": {
						"BitwiseAdd()": "4604",
						"BitwiseLEFTSHIFT()": "4541",
						"BitwiseNOT()": "2480",
						"BitwiseOR()": "4581",
						"BitwiseRIGHTSHIFT()": "4563",
						"BitwiseXOR()": "4603",
						"a()": "2425",
						"b()": "2448",
						"c()": "2513",
						"d()": "2514"
					}
				},
				"methodIdentifiers": {
					"BitwiseAdd()": "7e529f20",
					"BitwiseLEFTSHIFT()": "8c1d7095",
					"BitwiseNOT()": "79e11397",
					"BitwiseOR()": "a5fedf21",
					"BitwiseRIGHTSHIFT()": "9a1b6c6b",
					"BitwiseXOR()": "b9153d73",
					"a()": "0dbe671f",
					"b()": "4df7e3d0",
					"c()": "c3da42b8",
					"d()": "8a054ac2"
				}
			},
			"storageLayout": {
				"storage": [
					{
						"astId": 4,
						"contract": "BitwiseOperator.sol:operators",
						"label": "a",
						"offset": 0,
						"slot": "0",
						"type": "t_int256"
					},
					{
						"astId": 7,
						"contract": "BitwiseOperator.sol:operators",
						"label": "b",
						"offset": 0,
						"slot": "1",
						"type": "t_int256"
					},
					{
						"astId": 10,
						"contract": "BitwiseOperator.sol:operators",
						"label": "c",
						"offset": 0,
						"slot": "2",
						"type": "t_uint256"
					},
					{
						"astId": 13,
						"contract": "BitwiseOperator.sol:operators",
						"label": "d",
						"offset": 0,
						"slot": "3",
						"type": "t_uint256"
					}
				],
				"types": {
					"t_int256": {
						"encoding": "inplace",
						"label": "int256",
						"numberOfBytes": "32"
					},
					"t_uint256": {
						"encoding": "inplace",
						"label": "uint256",
						"numberOfBytes": "32"
					}
				}
			},
			"userdoc": {
				"kind": "user",
				"methods": {},
				"version": 1
			}
		}
	}
}