{
	"units.sol": {
		"units": {
			"abi": [
				{
					"inputs": [],
					"name": "send",
					"outputs": [],
					"stateMutability": "payable",
					"type": "function"
				}
			],
			"devdoc": {
				"kind": "dev",
				"methods": {},
				"version": 1
			},
			"evm": {
				"assembly": "    /* \"units.sol\":70:292  contract units {... */\n  mstore(0x40, 0x80)\n  callvalue\n  dup1\n  iszero\n  tag_1\n  jumpi\n  0x00\n  dup1\n  revert\ntag_1:\n  pop\n  dataSize(sub_0)\n  dup1\n  dataOffset(sub_0)\n  0x00\n  codecopy\n  0x00\n  return\nstop\n\nsub_0: assembly {\n        /* \"units.sol\":70:292  contract units {... */\n      mstore(0x40, 0x80)\n      jumpi(tag_1, lt(calldatasize, 0x04))\n      shr(0xe0, calldataload(0x00))\n      dup1\n      0xb46300ec\n      eq\n      tag_2\n      jumpi\n    tag_1:\n      0x00\n      dup1\n      revert\n        /* \"units.sol\":240:289  function send() public payable amount{... */\n    tag_2:\n      tag_3\n      tag_4\n      jump\t// in\n    tag_3:\n      stop\n    tag_4:\n        /* \"units.sol\":189:210  1734324808+ 1 minutes */\n      0x675fb284\n        /* \"units.sol\":170:185  block.timestamp */\n      timestamp\n        /* \"units.sol\":170:211  block.timestamp < (1734324808+ 1 minutes) */\n      lt\n        /* \"units.sol\":162:212  require(block.timestamp < (1734324808+ 1 minutes)) */\n      tag_6\n      jumpi\n      0x00\n      dup1\n      revert\n    tag_6:\n        /* \"units.sol\":240:289  function send() public payable amount{... */\n      jump\t// out\n\n    auxdata: 0xa26469706673582212203b60f228760814249d8f2a2d9c56a4fb17f24e0d2956afdf8f1b48119722376464736f6c634300081a0033\n}\n",
				"bytecode": {
					"linkReferences": {},
					"object": "6080604052348015600e575f80fd5b50606d80601a5f395ff3fe608060405260043610601b575f3560e01c8063b46300ec14601f575b5f80fd5b60256027565b005b63675fb28442106035575f80fd5b56fea26469706673582212203b60f228760814249d8f2a2d9c56a4fb17f24e0d2956afdf8f1b48119722376464736f6c634300081a0033",
					"opcodes": "PUSH1 0x80 PUSH1 0x40 MSTORE CALLVALUE DUP1 ISZERO PUSH1 0xE JUMPI PUSH0 DUP1 REVERT JUMPDEST POP PUSH1 0x6D DUP1 PUSH1 0x1A PUSH0 CODECOPY PUSH0 RETURN INVALID PUSH1 0x80 PUSH1 0x40 MSTORE PUSH1 0x4 CALLDATASIZE LT PUSH1 0x1B JUMPI PUSH0 CALLDATALOAD PUSH1 0xE0 SHR DUP1 PUSH4 0xB46300EC EQ PUSH1 0x1F JUMPI JUMPDEST PUSH0 DUP1 REVERT JUMPDEST PUSH1 0x25 PUSH1 0x27 JUMP JUMPDEST STOP JUMPDEST PUSH4 0x675FB284 TIMESTAMP LT PUSH1 0x35 JUMPI PUSH0 DUP1 REVERT JUMPDEST JUMP INVALID LOG2 PUSH5 0x6970667358 0x22 SLT KECCAK256 EXTCODESIZE PUSH1 0xF2 0x28 PUSH23 0x814249D8F2A2D9C56A4FB17F24E0D2956AFDF8F1B4811 SWAP8 0x22 CALLDATACOPY PUSH5 0x64736F6C63 NUMBER STOP ADDMOD BYTE STOP CALLER "
				},
				"gasEstimates": {
					"creation": {
						"codeDepositCost": "21800",
						"executionCost": "73",
						"totalCost": "21873"
					},
					"external": {
						"send()": "119"
					}
				},
				"methodIdentifiers": {
					"send()": "b46300ec"
				}
			},
			"storageLayout": {
				"storage": [],
				"types": null
			},
			"userdoc": {
				"kind": "user",
				"methods": {},
				"version": 1
			}
		}
	}
}