{
	"relationalOperator.sol": {
		"operators": {
			"abi": [
				{
					"inputs": [],
					"name": "equal",
					"outputs": [
						{
							"internalType": "bool",
							"name": "",
							"type": "bool"
						}
					],
					"stateMutability": "view",
					"type": "function"
				},
				{
					"inputs": [],
					"name": "greaterthan",
					"outputs": [
						{
							"internalType": "bool",
							"name": "",
							"type": "bool"
						}
					],
					"stateMutability": "view",
					"type": "function"
				},
				{
					"inputs": [],
					"name": "lessthan",
					"outputs": [
						{
							"internalType": "bool",
							"name": "",
							"type": "bool"
						}
					],
					"stateMutability": "view",
					"type": "function"
				},
				{
					"inputs": [],
					"name": "notequal",
					"outputs": [
						{
							"internalType": "bool",
							"name": "",
							"type": "bool"
						}
					],
					"stateMutability": "view",
					"type": "function"
				},
				{
					"inputs": [],
					"name": "val",
					"outputs": [
						{
							"internalType": "uint256",
							"name": "",
							"type": "uint256"
						}
					],
					"stateMutability": "view",
					"type": "function"
				}
			],
			"devdoc": {
				"kind": "dev",
				"methods": {},
				"version": 1
			},
			"evm": {
				"assembly": "    /* \"relationalOperator.sol\":70:471  contract operators {... */\n  mstore(0x40, 0x80)\n    /* \"relationalOperator.sol\":114:115  4 */\n  0x04\n    /* \"relationalOperator.sol\":96:115  uint public val = 4 */\n  0x00\n  sstore\n    /* \"relationalOperator.sol\":70:471  contract operators {... */\n  callvalue\n  dup1\n  iszero\n  tag_1\n  jumpi\n  0x00\n  dup1\n  revert\ntag_1:\n  pop\n  dataSize(sub_0)\n  dup1\n  dataOffset(sub_0)\n  0x00\n  codecopy\n  0x00\n  return\nstop\n\nsub_0: assembly {\n        /* \"relationalOperator.sol\":70:471  contract operators {... */\n      mstore(0x40, 0x80)\n      callvalue\n      dup1\n      iszero\n      tag_1\n      jumpi\n      0x00\n      dup1\n      revert\n    tag_1:\n      pop\n      jumpi(tag_2, lt(calldatasize, 0x04))\n      shr(0xe0, calldataload(0x00))\n      dup1\n      0x1e228514\n      eq\n      tag_3\n      jumpi\n      dup1\n      0x29bda522\n      eq\n      tag_4\n      jumpi\n      dup1\n      0x3c6bb436\n      eq\n      tag_5\n      jumpi\n      dup1\n      0x6cb2ba67\n      eq\n      tag_6\n      jumpi\n      dup1\n      0xf4809a28\n      eq\n      tag_7\n      jumpi\n    tag_2:\n      0x00\n      dup1\n      revert\n        /* \"relationalOperator.sol\":124:201  function equal() public view returns(bool) {... */\n    tag_3:\n      tag_8\n      tag_9\n      jump\t// in\n    tag_8:\n      mload(0x40)\n      tag_10\n      swap2\n      swap1\n      tag_11\n      jump\t// in\n    tag_10:\n      mload(0x40)\n      dup1\n      swap2\n      sub\n      swap1\n      return\n        /* \"relationalOperator.sol\":209:289  function notequal() public view returns(bool) {... */\n    tag_4:\n      tag_12\n      tag_13\n      jump\t// in\n    tag_12:\n      mload(0x40)\n      tag_14\n      swap2\n      swap1\n      tag_11\n      jump\t// in\n    tag_14:\n      mload(0x40)\n      dup1\n      swap2\n      sub\n      swap1\n      return\n        /* \"relationalOperator.sol\":96:115  uint public val = 4 */\n    tag_5:\n      tag_15\n      tag_16\n      jump\t// in\n    tag_15:\n      mload(0x40)\n      tag_17\n      swap2\n      swap1\n      tag_18\n      jump\t// in\n    tag_17:\n      mload(0x40)\n      dup1\n      swap2\n      sub\n      swap1\n      return\n        /* \"relationalOperator.sol\":388:468  function lessthan() public view returns(bool) {... */\n    tag_6:\n      tag_19\n      tag_20\n      jump\t// in\n    tag_19:\n      mload(0x40)\n      tag_21\n      swap2\n      swap1\n      tag_11\n      jump\t// in\n    tag_21:\n      mload(0x40)\n      dup1\n      swap2\n      sub\n      swap1\n      return\n        /* \"relationalOperator.sol\":297:380  function greaterthan() public view returns(bool) {... */\n    tag_7:\n      tag_22\n      tag_23\n      jump\t// in\n    tag_22:\n      mload(0x40)\n      tag_24\n      swap2\n      swap1\n      tag_11\n      jump\t// in\n    tag_24:\n      mload(0x40)\n      dup1\n      swap2\n      sub\n      swap1\n      return\n        /* \"relationalOperator.sol\":124:201  function equal() public view returns(bool) {... */\n    tag_9:\n        /* \"relationalOperator.sol\":161:165  bool */\n      0x00\n        /* \"relationalOperator.sol\":192:193  3 */\n      0x03\n        /* \"relationalOperator.sol\":185:188  val */\n      sload(0x00)\n        /* \"relationalOperator.sol\":185:193  val == 3 */\n      eq\n        /* \"relationalOperator.sol\":178:193  return val == 3 */\n      swap1\n      pop\n        /* \"relationalOperator.sol\":124:201  function equal() public view returns(bool) {... */\n      swap1\n      jump\t// out\n        /* \"relationalOperator.sol\":209:289  function notequal() public view returns(bool) {... */\n    tag_13:\n        /* \"relationalOperator.sol\":249:253  bool */\n      0x00\n        /* \"relationalOperator.sol\":280:281  3 */\n      0x03\n        /* \"relationalOperator.sol\":273:276  val */\n      sload(0x00)\n        /* \"relationalOperator.sol\":273:281  val != 3 */\n      eq\n      iszero\n        /* \"relationalOperator.sol\":266:281  return val != 3 */\n      swap1\n      pop\n        /* \"relationalOperator.sol\":209:289  function notequal() public view returns(bool) {... */\n      swap1\n      jump\t// out\n        /* \"relationalOperator.sol\":96:115  uint public val = 4 */\n    tag_16:\n      sload(0x00)\n      dup2\n      jump\t// out\n        /* \"relationalOperator.sol\":388:468  function lessthan() public view returns(bool) {... */\n    tag_20:\n        /* \"relationalOperator.sol\":428:432  bool */\n      0x00\n        /* \"relationalOperator.sol\":459:460  3 */\n      0x03\n        /* \"relationalOperator.sol\":452:455  val */\n      sload(0x00)\n        /* \"relationalOperator.sol\":452:460  val <= 3 */\n      gt\n      iszero\n        /* \"relationalOperator.sol\":445:460  return val <= 3 */\n      swap1\n      pop\n        /* \"relationalOperator.sol\":388:468  function lessthan() public view returns(bool) {... */\n      swap1\n      jump\t// out\n        /* \"relationalOperator.sol\":297:380  function greaterthan() public view returns(bool) {... */\n    tag_23:\n        /* \"relationalOperator.sol\":340:344  bool */\n      0x00\n        /* \"relationalOperator.sol\":371:372  3 */\n      0x03\n        /* \"relationalOperator.sol\":364:367  val */\n      sload(0x00)\n        /* \"relationalOperator.sol\":364:372  val >= 3 */\n      lt\n      iszero\n        /* \"relationalOperator.sol\":357:372  return val >= 3 */\n      swap1\n      pop\n        /* \"relationalOperator.sol\":297:380  function greaterthan() public view returns(bool) {... */\n      swap1\n      jump\t// out\n        /* \"#utility.yul\":7:97   */\n    tag_29:\n        /* \"#utility.yul\":41:48   */\n      0x00\n        /* \"#utility.yul\":84:89   */\n      dup2\n        /* \"#utility.yul\":77:90   */\n      iszero\n        /* \"#utility.yul\":70:91   */\n      iszero\n        /* \"#utility.yul\":59:91   */\n      swap1\n      pop\n        /* \"#utility.yul\":7:97   */\n      swap2\n      swap1\n      pop\n      jump\t// out\n        /* \"#utility.yul\":103:212   */\n    tag_30:\n        /* \"#utility.yul\":184:205   */\n      tag_36\n        /* \"#utility.yul\":199:204   */\n      dup2\n        /* \"#utility.yul\":184:205   */\n      tag_29\n      jump\t// in\n    tag_36:\n        /* \"#utility.yul\":179:182   */\n      dup3\n        /* \"#utility.yul\":172:206   */\n      mstore\n        /* \"#utility.yul\":103:212   */\n      pop\n      pop\n      jump\t// out\n        /* \"#utility.yul\":218:428   */\n    tag_11:\n        /* \"#utility.yul\":305:309   */\n      0x00\n        /* \"#utility.yul\":343:345   */\n      0x20\n        /* \"#utility.yul\":332:341   */\n      dup3\n        /* \"#utility.yul\":328:346   */\n      add\n        /* \"#utility.yul\":320:346   */\n      swap1\n      pop\n        /* \"#utility.yul\":356:421   */\n      tag_38\n        /* \"#utility.yul\":418:419   */\n      0x00\n        /* \"#utility.yul\":407:416   */\n      dup4\n        /* \"#utility.yul\":403:420   */\n      add\n        /* \"#utility.yul\":394:400   */\n      dup5\n        /* \"#utility.yul\":356:421   */\n      tag_30\n      jump\t// in\n    tag_38:\n        /* \"#utility.yul\":218:428   */\n      swap3\n      swap2\n      pop\n      pop\n      jump\t// out\n        /* \"#utility.yul\":434:511   */\n    tag_31:\n        /* \"#utility.yul\":471:478   */\n      0x00\n        /* \"#utility.yul\":500:505   */\n      dup2\n        /* \"#utility.yul\":489:505   */\n      swap1\n      pop\n        /* \"#utility.yul\":434:511   */\n      swap2\n      swap1\n      pop\n      jump\t// out\n        /* \"#utility.yul\":517:635   */\n    tag_32:\n        /* \"#utility.yul\":604:628   */\n      tag_41\n        /* \"#utility.yul\":622:627   */\n      dup2\n        /* \"#utility.yul\":604:628   */\n      tag_31\n      jump\t// in\n    tag_41:\n        /* \"#utility.yul\":599:602   */\n      dup3\n        /* \"#utility.yul\":592:629   */\n      mstore\n        /* \"#utility.yul\":517:635   */\n      pop\n      pop\n      jump\t// out\n        /* \"#utility.yul\":641:863   */\n    tag_18:\n        /* \"#utility.yul\":734:738   */\n      0x00\n        /* \"#utility.yul\":772:774   */\n      0x20\n        /* \"#utility.yul\":761:770   */\n      dup3\n        /* \"#utility.yul\":757:775   */\n      add\n        /* \"#utility.yul\":749:775   */\n      swap1\n      pop\n        /* \"#utility.yul\":785:856   */\n      tag_43\n        /* \"#utility.yul\":853:854   */\n      0x00\n        /* \"#utility.yul\":842:851   */\n      dup4\n        /* \"#utility.yul\":838:855   */\n      add\n        /* \"#utility.yul\":829:835   */\n      dup5\n        /* \"#utility.yul\":785:856   */\n      tag_32\n      jump\t// in\n    tag_43:\n        /* \"#utility.yul\":641:863   */\n      swap3\n      swap2\n      pop\n      pop\n      jump\t// out\n\n    auxdata: 0xa26469706673582212201bdeecab0b6551e55bf73c10f691ed0356ff36f4cf6a1714d7473fe71376fe2c64736f6c634300081a0033\n}\n",
				"bytecode": {
					"linkReferences": {},
					"object": "608060405260045f553480156012575f80fd5b506101bd806100205f395ff3fe608060405234801561000f575f80fd5b5060043610610055575f3560e01c80631e2285141461005957806329bda522146100775780633c6bb436146100955780636cb2ba67146100b3578063f4809a28146100d1575b5f80fd5b6100616100ef565b60405161006e919061013d565b60405180910390f35b61007f6100fa565b60405161008c919061013d565b60405180910390f35b61009d610106565b6040516100aa919061016e565b60405180910390f35b6100bb61010b565b6040516100c8919061013d565b60405180910390f35b6100d9610117565b6040516100e6919061013d565b60405180910390f35b5f60035f5414905090565b5f60035f541415905090565b5f5481565b5f60035f541115905090565b5f60035f541015905090565b5f8115159050919050565b61013781610123565b82525050565b5f6020820190506101505f83018461012e565b92915050565b5f819050919050565b61016881610156565b82525050565b5f6020820190506101815f83018461015f565b9291505056fea26469706673582212201bdeecab0b6551e55bf73c10f691ed0356ff36f4cf6a1714d7473fe71376fe2c64736f6c634300081a0033",
					"opcodes": "PUSH1 0x80 PUSH1 0x40 MSTORE PUSH1 0x4 PUSH0 SSTORE CALLVALUE DUP1 ISZERO PUSH1 0x12 JUMPI PUSH0 DUP1 REVERT JUMPDEST POP PUSH2 0x1BD DUP1 PUSH2 0x20 PUSH0 CODECOPY PUSH0 RETURN INVALID PUSH1 0x80 PUSH1 0x40 MSTORE CALLVALUE DUP1 ISZERO PUSH2 0xF JUMPI PUSH0 DUP1 REVERT JUMPDEST POP PUSH1 0x4 CALLDATASIZE LT PUSH2 0x55 JUMPI PUSH0 CALLDATALOAD PUSH1 0xE0 SHR DUP1 PUSH4 0x1E228514 EQ PUSH2 0x59 JUMPI DUP1 PUSH4 0x29BDA522 EQ PUSH2 0x77 JUMPI DUP1 PUSH4 0x3C6BB436 EQ PUSH2 0x95 JUMPI DUP1 PUSH4 0x6CB2BA67 EQ PUSH2 0xB3 JUMPI DUP1 PUSH4 0xF4809A28 EQ PUSH2 0xD1 JUMPI JUMPDEST PUSH0 DUP1 REVERT JUMPDEST PUSH2 0x61 PUSH2 0xEF JUMP JUMPDEST PUSH1 0x40 MLOAD PUSH2 0x6E SWAP2 SWAP1 PUSH2 0x13D JUMP JUMPDEST PUSH1 0x40 MLOAD DUP1 SWAP2 SUB SWAP1 RETURN JUMPDEST PUSH2 0x7F PUSH2 0xFA JUMP JUMPDEST PUSH1 0x40 MLOAD PUSH2 0x8C SWAP2 SWAP1 PUSH2 0x13D JUMP JUMPDEST PUSH1 0x40 MLOAD DUP1 SWAP2 SUB SWAP1 RETURN JUMPDEST PUSH2 0x9D PUSH2 0x106 JUMP JUMPDEST PUSH1 0x40 MLOAD PUSH2 0xAA SWAP2 SWAP1 PUSH2 0x16E JUMP JUMPDEST PUSH1 0x40 MLOAD DUP1 SWAP2 SUB SWAP1 RETURN JUMPDEST PUSH2 0xBB PUSH2 0x10B JUMP JUMPDEST PUSH1 0x40 MLOAD PUSH2 0xC8 SWAP2 SWAP1 PUSH2 0x13D JUMP JUMPDEST PUSH1 0x40 MLOAD DUP1 SWAP2 SUB SWAP1 RETURN JUMPDEST PUSH2 0xD9 PUSH2 0x117 JUMP JUMPDEST PUSH1 0x40 MLOAD PUSH2 0xE6 SWAP2 SWAP1 PUSH2 0x13D JUMP JUMPDEST PUSH1 0x40 MLOAD DUP1 SWAP2 SUB SWAP1 RETURN JUMPDEST PUSH0 PUSH1 0x3 PUSH0 SLOAD EQ SWAP1 POP SWAP1 JUMP JUMPDEST PUSH0 PUSH1 0x3 PUSH0 SLOAD EQ ISZERO SWAP1 POP SWAP1 JUMP JUMPDEST PUSH0 SLOAD DUP2 JUMP JUMPDEST PUSH0 PUSH1 0x3 PUSH0 SLOAD GT ISZERO SWAP1 POP SWAP1 JUMP JUMPDEST PUSH0 PUSH1 0x3 PUSH0 SLOAD LT ISZERO SWAP1 POP SWAP1 JUMP JUMPDEST PUSH0 DUP2 ISZERO ISZERO SWAP1 POP SWAP2 SWAP1 POP JUMP JUMPDEST PUSH2 0x137 DUP2 PUSH2 0x123 JUMP JUMPDEST DUP3 MSTORE POP POP JUMP JUMPDEST PUSH0 PUSH1 0x20 DUP3 ADD SWAP1 POP PUSH2 0x150 PUSH0 DUP4 ADD DUP5 PUSH2 0x12E JUMP JUMPDEST SWAP3 SWAP2 POP POP JUMP JUMPDEST PUSH0 DUP2 SWAP1 POP SWAP2 SWAP1 POP JUMP JUMPDEST PUSH2 0x168 DUP2 PUSH2 0x156 JUMP JUMPDEST DUP3 MSTORE POP POP JUMP JUMPDEST PUSH0 PUSH1 0x20 DUP3 ADD SWAP1 POP PUSH2 0x181 PUSH0 DUP4 ADD DUP5 PUSH2 0x15F JUMP JUMPDEST SWAP3 SWAP2 POP POP JUMP INVALID LOG2 PUSH5 0x6970667358 0x22 SLT KECCAK256 SHL 0xDE 0xEC 0xAB SIGNEXTEND PUSH6 0x51E55BF73C10 0xF6 SWAP2 0xED SUB JUMP SELFDESTRUCT CALLDATASIZE DELEGATECALL 0xCF PUSH11 0x1714D7473FE71376FE2C64 PUSH20 0x6F6C634300081A00330000000000000000000000 "
				},
				"gasEstimates": {
					"creation": {
						"codeDepositCost": "89000",
						"executionCost": "22238",
						"totalCost": "111238"
					},
					"external": {
						"equal()": "2421",
						"greaterthan()": "2512",
						"lessthan()": "2490",
						"notequal()": "2446",
						"val()": "2446"
					}
				},
				"methodIdentifiers": {
					"equal()": "1e228514",
					"greaterthan()": "f4809a28",
					"lessthan()": "6cb2ba67",
					"notequal()": "29bda522",
					"val()": "3c6bb436"
				}
			},
			"storageLayout": {
				"storage": [
					{
						"astId": 4,
						"contract": "relationalOperator.sol:operators",
						"label": "val",
						"offset": 0,
						"slot": "0",
						"type": "t_uint256"
					}
				],
				"types": {
					"t_uint256": {
						"encoding": "inplace",
						"label": "uint256",
						"numberOfBytes": "32"
					}
				}
			},
			"userdoc": {
				"kind": "user",
				"methods": {},
				"version": 1
			}
		}
	}
}