{
	"ifElse.sol": {
		"operators": {
			"abi": [
				{
					"inputs": [],
					"name": "a",
					"outputs": [
						{
							"internalType": "uint256",
							"name": "",
							"type": "uint256"
						}
					],
					"stateMutability": "view",
					"type": "function"
				},
				{
					"inputs": [],
					"name": "b",
					"outputs": [
						{
							"internalType": "uint256",
							"name": "",
							"type": "uint256"
						}
					],
					"stateMutability": "view",
					"type": "function"
				},
				{
					"inputs": [],
					"name": "get",
					"outputs": [
						{
							"internalType": "uint256",
							"name": "",
							"type": "uint256"
						}
					],
					"stateMutability": "view",
					"type": "function"
				}
			],
			"devdoc": {
				"kind": "dev",
				"methods": {},
				"version": 1
			},
			"evm": {
				"assembly": "    /* \"ifElse.sol\":70:342  contract operators {... */\n  mstore(0x40, 0x80)\n    /* \"ifElse.sol\":112:113  5 */\n  0x05\n    /* \"ifElse.sol\":96:113  uint public a = 5 */\n  0x00\n  sstore\n    /* \"ifElse.sol\":136:137  4 */\n  0x04\n    /* \"ifElse.sol\":120:137  uint public b = 4 */\n  0x01\n  sstore\n    /* \"ifElse.sol\":70:342  contract operators {... */\n  callvalue\n  dup1\n  iszero\n  tag_1\n  jumpi\n  0x00\n  dup1\n  revert\ntag_1:\n  pop\n  dataSize(sub_0)\n  dup1\n  dataOffset(sub_0)\n  0x00\n  codecopy\n  0x00\n  return\nstop\n\nsub_0: assembly {\n        /* \"ifElse.sol\":70:342  contract operators {... */\n      mstore(0x40, 0x80)\n      callvalue\n      dup1\n      iszero\n      tag_1\n      jumpi\n      0x00\n      dup1\n      revert\n    tag_1:\n      pop\n      jumpi(tag_2, lt(calldatasize, 0x04))\n      shr(0xe0, calldataload(0x00))\n      dup1\n      0x0dbe671f\n      eq\n      tag_3\n      jumpi\n      dup1\n      0x4df7e3d0\n      eq\n      tag_4\n      jumpi\n      dup1\n      0x6d4ce63c\n      eq\n      tag_5\n      jumpi\n    tag_2:\n      0x00\n      dup1\n      revert\n        /* \"ifElse.sol\":96:113  uint public a = 5 */\n    tag_3:\n      tag_6\n      tag_7\n      jump\t// in\n    tag_6:\n      mload(0x40)\n      tag_8\n      swap2\n      swap1\n      tag_9\n      jump\t// in\n    tag_8:\n      mload(0x40)\n      dup1\n      swap2\n      sub\n      swap1\n      return\n        /* \"ifElse.sol\":120:137  uint public b = 4 */\n    tag_4:\n      tag_10\n      tag_11\n      jump\t// in\n    tag_10:\n      mload(0x40)\n      tag_12\n      swap2\n      swap1\n      tag_9\n      jump\t// in\n    tag_12:\n      mload(0x40)\n      dup1\n      swap2\n      sub\n      swap1\n      return\n        /* \"ifElse.sol\":146:339  function get() public view returns(uint) {... */\n    tag_5:\n      tag_13\n      tag_14\n      jump\t// in\n    tag_13:\n      mload(0x40)\n      tag_15\n      swap2\n      swap1\n      tag_9\n      jump\t// in\n    tag_15:\n      mload(0x40)\n      dup1\n      swap2\n      sub\n      swap1\n      return\n        /* \"ifElse.sol\":96:113  uint public a = 5 */\n    tag_7:\n      sload(0x00)\n      dup2\n      jump\t// out\n        /* \"ifElse.sol\":120:137  uint public b = 4 */\n    tag_11:\n      sload(0x01)\n      dup2\n      jump\t// out\n        /* \"ifElse.sol\":146:339  function get() public view returns(uint) {... */\n    tag_14:\n        /* \"ifElse.sol\":181:185  uint */\n      0x00\n        /* \"ifElse.sol\":206:207  4 */\n      0x04\n        /* \"ifElse.sol\":201:202  a */\n      sload(0x00)\n        /* \"ifElse.sol\":201:207  a == 4 */\n      sub\n        /* \"ifElse.sol\":198:332  if(a == 4){... */\n      tag_17\n      jumpi\n        /* \"ifElse.sol\":230:231  1 */\n      0x01\n        /* \"ifElse.sol\":223:231  return 1 */\n      swap1\n      pop\n      jump(tag_16)\n        /* \"ifElse.sol\":198:332  if(a == 4){... */\n    tag_17:\n        /* \"ifElse.sol\":256:257  3 */\n      0x03\n        /* \"ifElse.sol\":251:252  a */\n      sload(0x00)\n        /* \"ifElse.sol\":251:257  a == 3 */\n      sub\n        /* \"ifElse.sol\":248:332  if(a == 3){... */\n      tag_19\n      jumpi\n        /* \"ifElse.sol\":280:281  2 */\n      0x02\n        /* \"ifElse.sol\":273:281  return 2 */\n      swap1\n      pop\n      jump(tag_16)\n        /* \"ifElse.sol\":248:332  if(a == 3){... */\n    tag_19:\n        /* \"ifElse.sol\":319:320  2 */\n      0x02\n        /* \"ifElse.sol\":312:320  return 2 */\n      swap1\n      pop\n        /* \"ifElse.sol\":146:339  function get() public view returns(uint) {... */\n    tag_16:\n      swap1\n      jump\t// out\n        /* \"#utility.yul\":7:84   */\n    tag_21:\n        /* \"#utility.yul\":44:51   */\n      0x00\n        /* \"#utility.yul\":73:78   */\n      dup2\n        /* \"#utility.yul\":62:78   */\n      swap1\n      pop\n        /* \"#utility.yul\":7:84   */\n      swap2\n      swap1\n      pop\n      jump\t// out\n        /* \"#utility.yul\":90:208   */\n    tag_22:\n        /* \"#utility.yul\":177:201   */\n      tag_26\n        /* \"#utility.yul\":195:200   */\n      dup2\n        /* \"#utility.yul\":177:201   */\n      tag_21\n      jump\t// in\n    tag_26:\n        /* \"#utility.yul\":172:175   */\n      dup3\n        /* \"#utility.yul\":165:202   */\n      mstore\n        /* \"#utility.yul\":90:208   */\n      pop\n      pop\n      jump\t// out\n        /* \"#utility.yul\":214:436   */\n    tag_9:\n        /* \"#utility.yul\":307:311   */\n      0x00\n        /* \"#utility.yul\":345:347   */\n      0x20\n        /* \"#utility.yul\":334:343   */\n      dup3\n        /* \"#utility.yul\":330:348   */\n      add\n        /* \"#utility.yul\":322:348   */\n      swap1\n      pop\n        /* \"#utility.yul\":358:429   */\n      tag_28\n        /* \"#utility.yul\":426:427   */\n      0x00\n        /* \"#utility.yul\":415:424   */\n      dup4\n        /* \"#utility.yul\":411:428   */\n      add\n        /* \"#utility.yul\":402:408   */\n      dup5\n        /* \"#utility.yul\":358:429   */\n      tag_22\n      jump\t// in\n    tag_28:\n        /* \"#utility.yul\":214:436   */\n      swap3\n      swap2\n      pop\n      pop\n      jump\t// out\n\n    auxdata: 0xa2646970667358221220d081978999178939b763f721ee97ca2f0b9d3d6e3fa5ba9ddb9ab4ca5136db8c64736f6c634300081a0033\n}\n",
				"bytecode": {
					"linkReferences": {},
					"object": "608060405260055f5560046001553480156017575f80fd5b50610123806100255f395ff3fe6080604052348015600e575f80fd5b5060043610603a575f3560e01c80630dbe671f14603e5780634df7e3d01460585780636d4ce63c146072575b5f80fd5b6044608c565b604051604f919060d6565b60405180910390f35b605e6091565b6040516069919060d6565b60405180910390f35b60786097565b6040516083919060d6565b60405180910390f35b5f5481565b60015481565b5f60045f540360a8576001905060bd565b60035f540360b8576002905060bd565b600290505b90565b5f819050919050565b60d08160c0565b82525050565b5f60208201905060e75f83018460c9565b9291505056fea2646970667358221220d081978999178939b763f721ee97ca2f0b9d3d6e3fa5ba9ddb9ab4ca5136db8c64736f6c634300081a0033",
					"opcodes": "PUSH1 0x80 PUSH1 0x40 MSTORE PUSH1 0x5 PUSH0 SSTORE PUSH1 0x4 PUSH1 0x1 SSTORE CALLVALUE DUP1 ISZERO PUSH1 0x17 JUMPI PUSH0 DUP1 REVERT JUMPDEST POP PUSH2 0x123 DUP1 PUSH2 0x25 PUSH0 CODECOPY PUSH0 RETURN INVALID PUSH1 0x80 PUSH1 0x40 MSTORE CALLVALUE DUP1 ISZERO PUSH1 0xE JUMPI PUSH0 DUP1 REVERT JUMPDEST POP PUSH1 0x4 CALLDATASIZE LT PUSH1 0x3A JUMPI PUSH0 CALLDATALOAD PUSH1 0xE0 SHR DUP1 PUSH4 0xDBE671F EQ PUSH1 0x3E JUMPI DUP1 PUSH4 0x4DF7E3D0 EQ PUSH1 0x58 JUMPI DUP1 PUSH4 0x6D4CE63C EQ PUSH1 0x72 JUMPI JUMPDEST PUSH0 DUP1 REVERT JUMPDEST PUSH1 0x44 PUSH1 0x8C JUMP JUMPDEST PUSH1 0x40 MLOAD PUSH1 0x4F SWAP2 SWAP1 PUSH1 0xD6 JUMP JUMPDEST PUSH1 0x40 MLOAD DUP1 SWAP2 SUB SWAP1 RETURN JUMPDEST PUSH1 0x5E PUSH1 0x91 JUMP JUMPDEST PUSH1 0x40 MLOAD PUSH1 0x69 SWAP2 SWAP1 PUSH1 0xD6 JUMP JUMPDEST PUSH1 0x40 MLOAD DUP1 SWAP2 SUB SWAP1 RETURN JUMPDEST PUSH1 0x78 PUSH1 0x97 JUMP JUMPDEST PUSH1 0x40 MLOAD PUSH1 0x83 SWAP2 SWAP1 PUSH1 0xD6 JUMP JUMPDEST PUSH1 0x40 MLOAD DUP1 SWAP2 SUB SWAP1 RETURN JUMPDEST PUSH0 SLOAD DUP2 JUMP JUMPDEST PUSH1 0x1 SLOAD DUP2 JUMP JUMPDEST PUSH0 PUSH1 0x4 PUSH0 SLOAD SUB PUSH1 0xA8 JUMPI PUSH1 0x1 SWAP1 POP PUSH1 0xBD JUMP JUMPDEST PUSH1 0x3 PUSH0 SLOAD SUB PUSH1 0xB8 JUMPI PUSH1 0x2 SWAP1 POP PUSH1 0xBD JUMP JUMPDEST PUSH1 0x2 SWAP1 POP JUMPDEST SWAP1 JUMP JUMPDEST PUSH0 DUP2 SWAP1 POP SWAP2 SWAP1 POP JUMP JUMPDEST PUSH1 0xD0 DUP2 PUSH1 0xC0 JUMP JUMPDEST DUP3 MSTORE POP POP JUMP JUMPDEST PUSH0 PUSH1 0x20 DUP3 ADD SWAP1 POP PUSH1 0xE7 PUSH0 DUP4 ADD DUP5 PUSH1 0xC9 JUMP JUMPDEST SWAP3 SWAP2 POP POP JUMP INVALID LOG2 PUSH5 0x6970667358 0x22 SLT KECCAK256 0xD0 DUP2 SWAP8 DUP10 SWAP10 OR DUP10 CODECOPY 0xB7 PUSH4 0xF721EE97 0xCA 0x2F SIGNEXTEND SWAP14 RETURNDATASIZE PUSH15 0x3FA5BA9DDB9AB4CA5136DB8C64736F PUSH13 0x634300081A0033000000000000 "
				},
				"gasEstimates": {
					"creation": {
						"codeDepositCost": "58200",
						"executionCost": "44320",
						"totalCost": "102520"
					},
					"external": {
						"a()": "2402",
						"b()": "2425",
						"get()": "4609"
					}
				},
				"methodIdentifiers": {
					"a()": "0dbe671f",
					"b()": "4df7e3d0",
					"get()": "6d4ce63c"
				}
			},
			"storageLayout": {
				"storage": [
					{
						"astId": 4,
						"contract": "ifElse.sol:operators",
						"label": "a",
						"offset": 0,
						"slot": "0",
						"type": "t_uint256"
					},
					{
						"astId": 7,
						"contract": "ifElse.sol:operators",
						"label": "b",
						"offset": 0,
						"slot": "1",
						"type": "t_uint256"
					}
				],
				"types": {
					"t_uint256": {
						"encoding": "inplace",
						"label": "uint256",
						"numberOfBytes": "32"
					}
				}
			},
			"userdoc": {
				"kind": "user",
				"methods": {},
				"version": 1
			}
		}
	}
}