{
	"ConditionalOperator.sol": {
		"operators": {
			"abi": [
				{
					"inputs": [],
					"name": "Condition",
					"outputs": [
						{
							"internalType": "bool",
							"name": "",
							"type": "bool"
						}
					],
					"stateMutability": "view",
					"type": "function"
				},
				{
					"inputs": [],
					"name": "a",
					"outputs": [
						{
							"internalType": "int256",
							"name": "",
							"type": "int256"
						}
					],
					"stateMutability": "view",
					"type": "function"
				},
				{
					"inputs": [],
					"name": "b",
					"outputs": [
						{
							"internalType": "uint256",
							"name": "",
							"type": "uint256"
						}
					],
					"stateMutability": "view",
					"type": "function"
				}
			],
			"devdoc": {
				"kind": "dev",
				"methods": {},
				"version": 1
			},
			"evm": {
				"assembly": "    /* \"ConditionalOperator.sol\":70:244  contract operators {... */\n  mstore(0x40, 0x80)\n    /* \"ConditionalOperator.sol\":111:112  5 */\n  0x05\n    /* \"ConditionalOperator.sol\":96:112  int public a = 5 */\n  0x00\n  sstore\n    /* \"ConditionalOperator.sol\":135:136  4 */\n  0x04\n    /* \"ConditionalOperator.sol\":119:136  uint public b = 4 */\n  0x01\n  sstore\n    /* \"ConditionalOperator.sol\":70:244  contract operators {... */\n  callvalue\n  dup1\n  iszero\n  tag_1\n  jumpi\n  0x00\n  dup1\n  revert\ntag_1:\n  pop\n  dataSize(sub_0)\n  dup1\n  dataOffset(sub_0)\n  0x00\n  codecopy\n  0x00\n  return\nstop\n\nsub_0: assembly {\n        /* \"ConditionalOperator.sol\":70:244  contract operators {... */\n      mstore(0x40, 0x80)\n      callvalue\n      dup1\n      iszero\n      tag_1\n      jumpi\n      0x00\n      dup1\n      revert\n    tag_1:\n      pop\n      jumpi(tag_2, lt(calldatasize, 0x04))\n      shr(0xe0, calldataload(0x00))\n      dup1\n      0x0dbe671f\n      eq\n      tag_3\n      jumpi\n      dup1\n      0x4203adae\n      eq\n      tag_4\n      jumpi\n      dup1\n      0x4df7e3d0\n      eq\n      tag_5\n      jumpi\n    tag_2:\n      0x00\n      dup1\n      revert\n        /* \"ConditionalOperator.sol\":96:112  int public a = 5 */\n    tag_3:\n      tag_6\n      tag_7\n      jump\t// in\n    tag_6:\n      mload(0x40)\n      tag_8\n      swap2\n      swap1\n      tag_9\n      jump\t// in\n    tag_8:\n      mload(0x40)\n      dup1\n      swap2\n      sub\n      swap1\n      return\n        /* \"ConditionalOperator.sol\":145:241  function Condition() public view returns(bool) {... */\n    tag_4:\n      tag_10\n      tag_11\n      jump\t// in\n    tag_10:\n      mload(0x40)\n      tag_12\n      swap2\n      swap1\n      tag_13\n      jump\t// in\n    tag_12:\n      mload(0x40)\n      dup1\n      swap2\n      sub\n      swap1\n      return\n        /* \"ConditionalOperator.sol\":119:136  uint public b = 4 */\n    tag_5:\n      tag_14\n      tag_15\n      jump\t// in\n    tag_14:\n      mload(0x40)\n      tag_16\n      swap2\n      swap1\n      tag_17\n      jump\t// in\n    tag_16:\n      mload(0x40)\n      dup1\n      swap2\n      sub\n      swap1\n      return\n        /* \"ConditionalOperator.sol\":96:112  int public a = 5 */\n    tag_7:\n      sload(0x00)\n      dup2\n      jump\t// out\n        /* \"ConditionalOperator.sol\":145:241  function Condition() public view returns(bool) {... */\n    tag_11:\n        /* \"ConditionalOperator.sol\":186:190  bool */\n      0x00\n        /* \"ConditionalOperator.sol\":216:217  5 */\n      0x05\n        /* \"ConditionalOperator.sol\":211:212  a */\n      sload(0x00)\n        /* \"ConditionalOperator.sol\":211:217  a == 5 */\n      eq\n        /* \"ConditionalOperator.sol\":211:232  a == 5 ? true : false */\n      tag_19\n      jumpi\n        /* \"ConditionalOperator.sol\":227:232  false */\n      0x00\n        /* \"ConditionalOperator.sol\":211:232  a == 5 ? true : false */\n      jump(tag_20)\n    tag_19:\n        /* \"ConditionalOperator.sol\":220:224  true */\n      0x01\n        /* \"ConditionalOperator.sol\":211:232  a == 5 ? true : false */\n    tag_20:\n        /* \"ConditionalOperator.sol\":203:233  return (a == 5 ? true : false) */\n      swap1\n      pop\n        /* \"ConditionalOperator.sol\":145:241  function Condition() public view returns(bool) {... */\n      swap1\n      jump\t// out\n        /* \"ConditionalOperator.sol\":119:136  uint public b = 4 */\n    tag_15:\n      sload(0x01)\n      dup2\n      jump\t// out\n        /* \"#utility.yul\":7:83   */\n    tag_21:\n        /* \"#utility.yul\":43:50   */\n      0x00\n        /* \"#utility.yul\":72:77   */\n      dup2\n        /* \"#utility.yul\":61:77   */\n      swap1\n      pop\n        /* \"#utility.yul\":7:83   */\n      swap2\n      swap1\n      pop\n      jump\t// out\n        /* \"#utility.yul\":89:204   */\n    tag_22:\n        /* \"#utility.yul\":174:197   */\n      tag_30\n        /* \"#utility.yul\":191:196   */\n      dup2\n        /* \"#utility.yul\":174:197   */\n      tag_21\n      jump\t// in\n    tag_30:\n        /* \"#utility.yul\":169:172   */\n      dup3\n        /* \"#utility.yul\":162:198   */\n      mstore\n        /* \"#utility.yul\":89:204   */\n      pop\n      pop\n      jump\t// out\n        /* \"#utility.yul\":210:428   */\n    tag_9:\n        /* \"#utility.yul\":301:305   */\n      0x00\n        /* \"#utility.yul\":339:341   */\n      0x20\n        /* \"#utility.yul\":328:337   */\n      dup3\n        /* \"#utility.yul\":324:342   */\n      add\n        /* \"#utility.yul\":316:342   */\n      swap1\n      pop\n        /* \"#utility.yul\":352:421   */\n      tag_32\n        /* \"#utility.yul\":418:419   */\n      0x00\n        /* \"#utility.yul\":407:416   */\n      dup4\n        /* \"#utility.yul\":403:420   */\n      add\n        /* \"#utility.yul\":394:400   */\n      dup5\n        /* \"#utility.yul\":352:421   */\n      tag_22\n      jump\t// in\n    tag_32:\n        /* \"#utility.yul\":210:428   */\n      swap3\n      swap2\n      pop\n      pop\n      jump\t// out\n        /* \"#utility.yul\":434:524   */\n    tag_23:\n        /* \"#utility.yul\":468:475   */\n      0x00\n        /* \"#utility.yul\":511:516   */\n      dup2\n        /* \"#utility.yul\":504:517   */\n      iszero\n        /* \"#utility.yul\":497:518   */\n      iszero\n        /* \"#utility.yul\":486:518   */\n      swap1\n      pop\n        /* \"#utility.yul\":434:524   */\n      swap2\n      swap1\n      pop\n      jump\t// out\n        /* \"#utility.yul\":530:639   */\n    tag_24:\n        /* \"#utility.yul\":611:632   */\n      tag_35\n        /* \"#utility.yul\":626:631   */\n      dup2\n        /* \"#utility.yul\":611:632   */\n      tag_23\n      jump\t// in\n    tag_35:\n        /* \"#utility.yul\":606:609   */\n      dup3\n        /* \"#utility.yul\":599:633   */\n      mstore\n        /* \"#utility.yul\":530:639   */\n      pop\n      pop\n      jump\t// out\n        /* \"#utility.yul\":645:855   */\n    tag_13:\n        /* \"#utility.yul\":732:736   */\n      0x00\n        /* \"#utility.yul\":770:772   */\n      0x20\n        /* \"#utility.yul\":759:768   */\n      dup3\n        /* \"#utility.yul\":755:773   */\n      add\n        /* \"#utility.yul\":747:773   */\n      swap1\n      pop\n        /* \"#utility.yul\":783:848   */\n      tag_37\n        /* \"#utility.yul\":845:846   */\n      0x00\n        /* \"#utility.yul\":834:843   */\n      dup4\n        /* \"#utility.yul\":830:847   */\n      add\n        /* \"#utility.yul\":821:827   */\n      dup5\n        /* \"#utility.yul\":783:848   */\n      tag_24\n      jump\t// in\n    tag_37:\n        /* \"#utility.yul\":645:855   */\n      swap3\n      swap2\n      pop\n      pop\n      jump\t// out\n        /* \"#utility.yul\":861:938   */\n    tag_25:\n        /* \"#utility.yul\":898:905   */\n      0x00\n        /* \"#utility.yul\":927:932   */\n      dup2\n        /* \"#utility.yul\":916:932   */\n      swap1\n      pop\n        /* \"#utility.yul\":861:938   */\n      swap2\n      swap1\n      pop\n      jump\t// out\n        /* \"#utility.yul\":944:1062   */\n    tag_26:\n        /* \"#utility.yul\":1031:1055   */\n      tag_40\n        /* \"#utility.yul\":1049:1054   */\n      dup2\n        /* \"#utility.yul\":1031:1055   */\n      tag_25\n      jump\t// in\n    tag_40:\n        /* \"#utility.yul\":1026:1029   */\n      dup3\n        /* \"#utility.yul\":1019:1056   */\n      mstore\n        /* \"#utility.yul\":944:1062   */\n      pop\n      pop\n      jump\t// out\n        /* \"#utility.yul\":1068:1290   */\n    tag_17:\n        /* \"#utility.yul\":1161:1165   */\n      0x00\n        /* \"#utility.yul\":1199:1201   */\n      0x20\n        /* \"#utility.yul\":1188:1197   */\n      dup3\n        /* \"#utility.yul\":1184:1202   */\n      add\n        /* \"#utility.yul\":1176:1202   */\n      swap1\n      pop\n        /* \"#utility.yul\":1212:1283   */\n      tag_42\n        /* \"#utility.yul\":1280:1281   */\n      0x00\n        /* \"#utility.yul\":1269:1278   */\n      dup4\n        /* \"#utility.yul\":1265:1282   */\n      add\n        /* \"#utility.yul\":1256:1262   */\n      dup5\n        /* \"#utility.yul\":1212:1283   */\n      tag_26\n      jump\t// in\n    tag_42:\n        /* \"#utility.yul\":1068:1290   */\n      swap3\n      swap2\n      pop\n      pop\n      jump\t// out\n\n    auxdata: 0xa2646970667358221220da0dd1127dda3bb1755bce0deceb7d7af6f7b20b4b5387c932016ede8655751e64736f6c634300081a0033\n}\n",
				"bytecode": {
					"linkReferences": {},
					"object": "608060405260055f5560046001553480156017575f80fd5b5061018b806100255f395ff3fe608060405234801561000f575f80fd5b506004361061003f575f3560e01c80630dbe671f146100435780634203adae146100615780634df7e3d01461007f575b5f80fd5b61004b61009d565b60405161005891906100d8565b60405180910390f35b6100696100a2565b604051610076919061010b565b60405180910390f35b6100876100ba565b604051610094919061013c565b60405180910390f35b5f5481565b5f60055f54146100b2575f6100b5565b60015b905090565b60015481565b5f819050919050565b6100d2816100c0565b82525050565b5f6020820190506100eb5f8301846100c9565b92915050565b5f8115159050919050565b610105816100f1565b82525050565b5f60208201905061011e5f8301846100fc565b92915050565b5f819050919050565b61013681610124565b82525050565b5f60208201905061014f5f83018461012d565b9291505056fea2646970667358221220da0dd1127dda3bb1755bce0deceb7d7af6f7b20b4b5387c932016ede8655751e64736f6c634300081a0033",
					"opcodes": "PUSH1 0x80 PUSH1 0x40 MSTORE PUSH1 0x5 PUSH0 SSTORE PUSH1 0x4 PUSH1 0x1 SSTORE CALLVALUE DUP1 ISZERO PUSH1 0x17 JUMPI PUSH0 DUP1 REVERT JUMPDEST POP PUSH2 0x18B DUP1 PUSH2 0x25 PUSH0 CODECOPY PUSH0 RETURN INVALID PUSH1 0x80 PUSH1 0x40 MSTORE CALLVALUE DUP1 ISZERO PUSH2 0xF JUMPI PUSH0 DUP1 REVERT JUMPDEST POP PUSH1 0x4 CALLDATASIZE LT PUSH2 0x3F JUMPI PUSH0 CALLDATALOAD PUSH1 0xE0 SHR DUP1 PUSH4 0xDBE671F EQ PUSH2 0x43 JUMPI DUP1 PUSH4 0x4203ADAE EQ PUSH2 0x61 JUMPI DUP1 PUSH4 0x4DF7E3D0 EQ PUSH2 0x7F JUMPI JUMPDEST PUSH0 DUP1 REVERT JUMPDEST PUSH2 0x4B PUSH2 0x9D JUMP JUMPDEST PUSH1 0x40 MLOAD PUSH2 0x58 SWAP2 SWAP1 PUSH2 0xD8 JUMP JUMPDEST PUSH1 0x40 MLOAD DUP1 SWAP2 SUB SWAP1 RETURN JUMPDEST PUSH2 0x69 PUSH2 0xA2 JUMP JUMPDEST PUSH1 0x40 MLOAD PUSH2 0x76 SWAP2 SWAP1 PUSH2 0x10B JUMP JUMPDEST PUSH1 0x40 MLOAD DUP1 SWAP2 SUB SWAP1 RETURN JUMPDEST PUSH2 0x87 PUSH2 0xBA JUMP JUMPDEST PUSH1 0x40 MLOAD PUSH2 0x94 SWAP2 SWAP1 PUSH2 0x13C JUMP JUMPDEST PUSH1 0x40 MLOAD DUP1 SWAP2 SUB SWAP1 RETURN JUMPDEST PUSH0 SLOAD DUP2 JUMP JUMPDEST PUSH0 PUSH1 0x5 PUSH0 SLOAD EQ PUSH2 0xB2 JUMPI PUSH0 PUSH2 0xB5 JUMP JUMPDEST PUSH1 0x1 JUMPDEST SWAP1 POP SWAP1 JUMP JUMPDEST PUSH1 0x1 SLOAD DUP2 JUMP JUMPDEST PUSH0 DUP2 SWAP1 POP SWAP2 SWAP1 POP JUMP JUMPDEST PUSH2 0xD2 DUP2 PUSH2 0xC0 JUMP JUMPDEST DUP3 MSTORE POP POP JUMP JUMPDEST PUSH0 PUSH1 0x20 DUP3 ADD SWAP1 POP PUSH2 0xEB PUSH0 DUP4 ADD DUP5 PUSH2 0xC9 JUMP JUMPDEST SWAP3 SWAP2 POP POP JUMP JUMPDEST PUSH0 DUP2 ISZERO ISZERO SWAP1 POP SWAP2 SWAP1 POP JUMP JUMPDEST PUSH2 0x105 DUP2 PUSH2 0xF1 JUMP JUMPDEST DUP3 MSTORE POP POP JUMP JUMPDEST PUSH0 PUSH1 0x20 DUP3 ADD SWAP1 POP PUSH2 0x11E PUSH0 DUP4 ADD DUP5 PUSH2 0xFC JUMP JUMPDEST SWAP3 SWAP2 POP POP JUMP JUMPDEST PUSH0 DUP2 SWAP1 POP SWAP2 SWAP1 POP JUMP JUMPDEST PUSH2 0x136 DUP2 PUSH2 0x124 JUMP JUMPDEST DUP3 MSTORE POP POP JUMP JUMPDEST PUSH0 PUSH1 0x20 DUP3 ADD SWAP1 POP PUSH2 0x14F PUSH0 DUP4 ADD DUP5 PUSH2 0x12D JUMP JUMPDEST SWAP3 SWAP2 POP POP JUMP INVALID LOG2 PUSH5 0x6970667358 0x22 SLT KECCAK256 0xDA 0xD 0xD1 SLT PUSH30 0xDA3BB1755BCE0DECEB7D7AF6F7B20B4B5387C932016EDE8655751E64736F PUSH13 0x634300081A0033000000000000 "
				},
				"gasEstimates": {
					"creation": {
						"codeDepositCost": "79000",
						"executionCost": "44338",
						"totalCost": "123338"
					},
					"external": {
						"Condition()": "2470",
						"a()": "2402",
						"b()": "2447"
					}
				},
				"methodIdentifiers": {
					"Condition()": "4203adae",
					"a()": "0dbe671f",
					"b()": "4df7e3d0"
				}
			},
			"storageLayout": {
				"storage": [
					{
						"astId": 4,
						"contract": "ConditionalOperator.sol:operators",
						"label": "a",
						"offset": 0,
						"slot": "0",
						"type": "t_int256"
					},
					{
						"astId": 7,
						"contract": "ConditionalOperator.sol:operators",
						"label": "b",
						"offset": 0,
						"slot": "1",
						"type": "t_uint256"
					}
				],
				"types": {
					"t_int256": {
						"encoding": "inplace",
						"label": "int256",
						"numberOfBytes": "32"
					},
					"t_uint256": {
						"encoding": "inplace",
						"label": "uint256",
						"numberOfBytes": "32"
					}
				}
			},
			"userdoc": {
				"kind": "user",
				"methods": {},
				"version": 1
			}
		}
	}
}