{
	"data": {
		"bytecode": {
			"linkReferences": {},
			"object": "608060405260045f553480156012575f80fd5b506104ee806100205f395ff3fe608060405234801561000f575f80fd5b506004361061007b575f3560e01c80634f2be91f116100595780634f2be91f146100d957806376d2a9a9146100f7578063a05f990614610127578063e1640d85146101455761007b565b806305b97db61461007f5780633c6bb4361461009d57806344cd9df1146100bb575b5f80fd5b610087610163565b60405161009491906101d3565b60405180910390f35b6100a5610167565b6040516100b291906101d3565b60405180910390f35b6100c361016c565b6040516100d0919061022b565b60405180910390f35b6100e1610173565b6040516100ee91906101d3565b60405180910390f35b610111600480360381019061010c9190610391565b61018c565b60405161011e9190610438565b60405180910390f35b61012f610196565b60405161013c91906101d3565b60405180910390f35b61014d61019d565b60405161015a91906101d3565b60405180910390f35b5f90565b5f5481565b5f33905090565b5f80600390506005816101869190610485565b91505090565b6060819050919050565b5f42905090565b5f3373ffffffffffffffffffffffffffffffffffffffff1631905090565b5f819050919050565b6101cd816101bb565b82525050565b5f6020820190506101e65f8301846101c4565b92915050565b5f73ffffffffffffffffffffffffffffffffffffffff82169050919050565b5f610215826101ec565b9050919050565b6102258161020b565b82525050565b5f60208201905061023e5f83018461021c565b92915050565b5f604051905090565b5f80fd5b5f80fd5b5f80fd5b5f80fd5b5f601f19601f8301169050919050565b7f4e487b71000000000000000000000000000000000000000000000000000000005f52604160045260245ffd5b6102a38261025d565b810181811067ffffffffffffffff821117156102c2576102c161026d565b5b80604052505050565b5f6102d4610244565b90506102e0828261029a565b919050565b5f67ffffffffffffffff8211156102ff576102fe61026d565b5b6103088261025d565b9050602081019050919050565b828183375f83830152505050565b5f610335610330846102e5565b6102cb565b90508281526020810184848401111561035157610350610259565b5b61035c848285610315565b509392505050565b5f82601f83011261037857610377610255565b5b8135610388848260208601610323565b91505092915050565b5f602082840312156103a6576103a561024d565b5b5f82013567ffffffffffffffff8111156103c3576103c2610251565b5b6103cf84828501610364565b91505092915050565b5f81519050919050565b5f82825260208201905092915050565b8281835e5f83830152505050565b5f61040a826103d8565b61041481856103e2565b93506104248185602086016103f2565b61042d8161025d565b840191505092915050565b5f6020820190508181035f8301526104508184610400565b905092915050565b7f4e487b71000000000000000000000000000000000000000000000000000000005f52601160045260245ffd5b5f61048f826101bb565b915061049a836101bb565b92508282019050808211156104b2576104b1610458565b5b9291505056fea2646970667358221220a1bc906ec2b184b95a6c28b0f6b74e621d37e0d0e13224c4e0ed57e672a2a46264736f6c634300081a0033",
			"opcodes": "PUSH1 0x80 PUSH1 0x40 MSTORE PUSH1 0x4 PUSH0 SSTORE CALLVALUE DUP1 ISZERO PUSH1 0x12 JUMPI PUSH0 DUP1 REVERT JUMPDEST POP PUSH2 0x4EE DUP1 PUSH2 0x20 PUSH0 CODECOPY PUSH0 RETURN INVALID PUSH1 0x80 PUSH1 0x40 MSTORE CALLVALUE DUP1 ISZERO PUSH2 0xF JUMPI PUSH0 DUP1 REVERT JUMPDEST POP PUSH1 0x4 CALLDATASIZE LT PUSH2 0x7B JUMPI PUSH0 CALLDATALOAD PUSH1 0xE0 SHR DUP1 PUSH4 0x4F2BE91F GT PUSH2 0x59 JUMPI DUP1 PUSH4 0x4F2BE91F EQ PUSH2 0xD9 JUMPI DUP1 PUSH4 0x76D2A9A9 EQ PUSH2 0xF7 JUMPI DUP1 PUSH4 0xA05F9906 EQ PUSH2 0x127 JUMPI DUP1 PUSH4 0xE1640D85 EQ PUSH2 0x145 JUMPI PUSH2 0x7B JUMP JUMPDEST DUP1 PUSH4 0x5B97DB6 EQ PUSH2 0x7F JUMPI DUP1 PUSH4 0x3C6BB436 EQ PUSH2 0x9D JUMPI DUP1 PUSH4 0x44CD9DF1 EQ PUSH2 0xBB JUMPI JUMPDEST PUSH0 DUP1 REVERT JUMPDEST PUSH2 0x87 PUSH2 0x163 JUMP JUMPDEST PUSH1 0x40 MLOAD PUSH2 0x94 SWAP2 SWAP1 PUSH2 0x1D3 JUMP JUMPDEST PUSH1 0x40 MLOAD DUP1 SWAP2 SUB SWAP1 RETURN JUMPDEST PUSH2 0xA5 PUSH2 0x167 JUMP JUMPDEST PUSH1 0x40 MLOAD PUSH2 0xB2 SWAP2 SWAP1 PUSH2 0x1D3 JUMP JUMPDEST PUSH1 0x40 MLOAD DUP1 SWAP2 SUB SWAP1 RETURN JUMPDEST PUSH2 0xC3 PUSH2 0x16C JUMP JUMPDEST PUSH1 0x40 MLOAD PUSH2 0xD0 SWAP2 SWAP1 PUSH2 0x22B JUMP JUMPDEST PUSH1 0x40 MLOAD DUP1 SWAP2 SUB SWAP1 RETURN JUMPDEST PUSH2 0xE1 PUSH2 0x173 JUMP JUMPDEST PUSH1 0x40 MLOAD PUSH2 0xEE SWAP2 SWAP1 PUSH2 0x1D3 JUMP JUMPDEST PUSH1 0x40 MLOAD DUP1 SWAP2 SUB SWAP1 RETURN JUMPDEST PUSH2 0x111 PUSH1 0x4 DUP1 CALLDATASIZE SUB DUP2 ADD SWAP1 PUSH2 0x10C SWAP2 SWAP1 PUSH2 0x391 JUMP JUMPDEST PUSH2 0x18C JUMP JUMPDEST PUSH1 0x40 MLOAD PUSH2 0x11E SWAP2 SWAP1 PUSH2 0x438 JUMP JUMPDEST PUSH1 0x40 MLOAD DUP1 SWAP2 SUB SWAP1 RETURN JUMPDEST PUSH2 0x12F PUSH2 0x196 JUMP JUMPDEST PUSH1 0x40 MLOAD PUSH2 0x13C SWAP2 SWAP1 PUSH2 0x1D3 JUMP JUMPDEST PUSH1 0x40 MLOAD DUP1 SWAP2 SUB SWAP1 RETURN JUMPDEST PUSH2 0x14D PUSH2 0x19D JUMP JUMPDEST PUSH1 0x40 MLOAD PUSH2 0x15A SWAP2 SWAP1 PUSH2 0x1D3 JUMP JUMPDEST PUSH1 0x40 MLOAD DUP1 SWAP2 SUB SWAP1 RETURN JUMPDEST PUSH0 SWAP1 JUMP JUMPDEST PUSH0 SLOAD DUP2 JUMP JUMPDEST PUSH0 CALLER SWAP1 POP SWAP1 JUMP JUMPDEST PUSH0 DUP1 PUSH1 0x3 SWAP1 POP PUSH1 0x5 DUP2 PUSH2 0x186 SWAP2 SWAP1 PUSH2 0x485 JUMP JUMPDEST SWAP2 POP POP SWAP1 JUMP JUMPDEST PUSH1 0x60 DUP2 SWAP1 POP SWAP2 SWAP1 POP JUMP JUMPDEST PUSH0 TIMESTAMP SWAP1 POP SWAP1 JUMP JUMPDEST PUSH0 CALLER PUSH20 0xFFFFFFFFFFFFFFFFFFFFFFFFFFFFFFFFFFFFFFFF AND BALANCE SWAP1 POP SWAP1 JUMP JUMPDEST PUSH0 DUP2 SWAP1 POP SWAP2 SWAP1 POP JUMP JUMPDEST PUSH2 0x1CD DUP2 PUSH2 0x1BB JUMP JUMPDEST DUP3 MSTORE POP POP JUMP JUMPDEST PUSH0 PUSH1 0x20 DUP3 ADD SWAP1 POP PUSH2 0x1E6 PUSH0 DUP4 ADD DUP5 PUSH2 0x1C4 JUMP JUMPDEST SWAP3 SWAP2 POP POP JUMP JUMPDEST PUSH0 PUSH20 0xFFFFFFFFFFFFFFFFFFFFFFFFFFFFFFFFFFFFFFFF DUP3 AND SWAP1 POP SWAP2 SWAP1 POP JUMP JUMPDEST PUSH0 PUSH2 0x215 DUP3 PUSH2 0x1EC JUMP JUMPDEST SWAP1 POP SWAP2 SWAP1 POP JUMP JUMPDEST PUSH2 0x225 DUP2 PUSH2 0x20B JUMP JUMPDEST DUP3 MSTORE POP POP JUMP JUMPDEST PUSH0 PUSH1 0x20 DUP3 ADD SWAP1 POP PUSH2 0x23E PUSH0 DUP4 ADD DUP5 PUSH2 0x21C JUMP JUMPDEST SWAP3 SWAP2 POP POP JUMP JUMPDEST PUSH0 PUSH1 0x40 MLOAD SWAP1 POP SWAP1 JUMP JUMPDEST PUSH0 DUP1 REVERT JUMPDEST PUSH0 DUP1 REVERT JUMPDEST PUSH0 DUP1 REVERT JUMPDEST PUSH0 DUP1 REVERT JUMPDEST PUSH0 PUSH1 0x1F NOT PUSH1 0x1F DUP4 ADD AND SWAP1 POP SWAP2 SWAP1 POP JUMP JUMPDEST PUSH32 0x4E487B7100000000000000000000000000000000000000000000000000000000 PUSH0 MSTORE PUSH1 0x41 PUSH1 0x4 MSTORE PUSH1 0x24 PUSH0 REVERT JUMPDEST PUSH2 0x2A3 DUP3 PUSH2 0x25D JUMP JUMPDEST DUP2 ADD DUP2 DUP2 LT PUSH8 0xFFFFFFFFFFFFFFFF DUP3 GT OR ISZERO PUSH2 0x2C2 JUMPI PUSH2 0x2C1 PUSH2 0x26D JUMP JUMPDEST JUMPDEST DUP1 PUSH1 0x40 MSTORE POP POP POP JUMP JUMPDEST PUSH0 PUSH2 0x2D4 PUSH2 0x244 JUMP JUMPDEST SWAP1 POP PUSH2 0x2E0 DUP3 DUP3 PUSH2 0x29A JUMP JUMPDEST SWAP2 SWAP1 POP JUMP JUMPDEST PUSH0 PUSH8 0xFFFFFFFFFFFFFFFF DUP3 GT ISZERO PUSH2 0x2FF JUMPI PUSH2 0x2FE PUSH2 0x26D JUMP JUMPDEST JUMPDEST PUSH2 0x308 DUP3 PUSH2 0x25D JUMP JUMPDEST SWAP1 POP PUSH1 0x20 DUP2 ADD SWAP1 POP SWAP2 SWAP1 POP JUMP JUMPDEST DUP3 DUP2 DUP4 CALLDATACOPY PUSH0 DUP4 DUP4 ADD MSTORE POP POP POP JUMP JUMPDEST PUSH0 PUSH2 0x335 PUSH2 0x330 DUP5 PUSH2 0x2E5 JUMP JUMPDEST PUSH2 0x2CB JUMP JUMPDEST SWAP1 POP DUP3 DUP2 MSTORE PUSH1 0x20 DUP2 ADD DUP5 DUP5 DUP5 ADD GT ISZERO PUSH2 0x351 JUMPI PUSH2 0x350 PUSH2 0x259 JUMP JUMPDEST JUMPDEST PUSH2 0x35C DUP5 DUP3 DUP6 PUSH2 0x315 JUMP JUMPDEST POP SWAP4 SWAP3 POP POP POP JUMP JUMPDEST PUSH0 DUP3 PUSH1 0x1F DUP4 ADD SLT PUSH2 0x378 JUMPI PUSH2 0x377 PUSH2 0x255 JUMP JUMPDEST JUMPDEST DUP2 CALLDATALOAD PUSH2 0x388 DUP5 DUP3 PUSH1 0x20 DUP7 ADD PUSH2 0x323 JUMP JUMPDEST SWAP2 POP POP SWAP3 SWAP2 POP POP JUMP JUMPDEST PUSH0 PUSH1 0x20 DUP3 DUP5 SUB SLT ISZERO PUSH2 0x3A6 JUMPI PUSH2 0x3A5 PUSH2 0x24D JUMP JUMPDEST JUMPDEST PUSH0 DUP3 ADD CALLDATALOAD PUSH8 0xFFFFFFFFFFFFFFFF DUP2 GT ISZERO PUSH2 0x3C3 JUMPI PUSH2 0x3C2 PUSH2 0x251 JUMP JUMPDEST JUMPDEST PUSH2 0x3CF DUP5 DUP3 DUP6 ADD PUSH2 0x364 JUMP JUMPDEST SWAP2 POP POP SWAP3 SWAP2 POP POP JUMP JUMPDEST PUSH0 DUP2 MLOAD SWAP1 POP SWAP2 SWAP1 POP JUMP JUMPDEST PUSH0 DUP3 DUP3 MSTORE PUSH1 0x20 DUP3 ADD SWAP1 POP SWAP3 SWAP2 POP POP JUMP JUMPDEST DUP3 DUP2 DUP4 MCOPY PUSH0 DUP4 DUP4 ADD MSTORE POP POP POP JUMP JUMPDEST PUSH0 PUSH2 0x40A DUP3 PUSH2 0x3D8 JUMP JUMPDEST PUSH2 0x414 DUP2 DUP6 PUSH2 0x3E2 JUMP JUMPDEST SWAP4 POP PUSH2 0x424 DUP2 DUP6 PUSH1 0x20 DUP7 ADD PUSH2 0x3F2 JUMP JUMPDEST PUSH2 0x42D DUP2 PUSH2 0x25D JUMP JUMPDEST DUP5 ADD SWAP2 POP POP SWAP3 SWAP2 POP POP JUMP JUMPDEST PUSH0 PUSH1 0x20 DUP3 ADD SWAP1 POP DUP2 DUP2 SUB PUSH0 DUP4 ADD MSTORE PUSH2 0x450 DUP2 DUP5 PUSH2 0x400 JUMP JUMPDEST SWAP1 POP SWAP3 SWAP2 POP POP JUMP JUMPDEST PUSH32 0x4E487B7100000000000000000000000000000000000000000000000000000000 PUSH0 MSTORE PUSH1 0x11 PUSH1 0x4 MSTORE PUSH1 0x24 PUSH0 REVERT JUMPDEST PUSH0 PUSH2 0x48F DUP3 PUSH2 0x1BB JUMP JUMPDEST SWAP2 POP PUSH2 0x49A DUP4 PUSH2 0x1BB JUMP JUMPDEST SWAP3 POP DUP3 DUP3 ADD SWAP1 POP DUP1 DUP3 GT ISZERO PUSH2 0x4B2 JUMPI PUSH2 0x4B1 PUSH2 0x458 JUMP JUMPDEST JUMPDEST SWAP3 SWAP2 POP POP JUMP INVALID LOG2 PUSH5 0x6970667358 0x22 SLT KECCAK256 LOG1 0xBC SWAP1 PUSH15 0xC2B184B95A6C28B0F6B74E621D37E0 0xD0 0xE1 ORIGIN 0x24 0xC4 0xE0 0xED JUMPI 0xE6 PUSH19 0xA2A46264736F6C634300081A00330000000000 "
		},
		"gasEstimates": {
			"creation": {
				"codeDepositCost": "252400",
				"executionCost": "22397",
				"totalCost": "274797"
			},
			"external": {
				"add()": "infinite",
				"add1(string)": "infinite",
				"global()": "375",
				"global1()": "424",
				"global2()": "325",
				"global3()": "3003",
				"val()": "2447"
			}
		},
		"methodIdentifiers": {
			"add()": "4f2be91f",
			"add1(string)": "76d2a9a9",
			"global()": "a05f9906",
			"global1()": "44cd9df1",
			"global2()": "05b97db6",
			"global3()": "e1640d85",
			"val()": "3c6bb436"
		}
	},
	"abi": [
		{
			"inputs": [],
			"name": "add",
			"outputs": [
				{
					"internalType": "uint256",
					"name": "",
					"type": "uint256"
				}
			],
			"stateMutability": "pure",
			"type": "function"
		},
		{
			"inputs": [
				{
					"internalType": "string",
					"name": "name",
					"type": "string"
				}
			],
			"name": "add1",
			"outputs": [
				{
					"internalType": "string",
					"name": "",
					"type": "string"
				}
			],
			"stateMutability": "pure",
			"type": "function"
		},
		{
			"inputs": [],
			"name": "global",
			"outputs": [
				{
					"internalType": "uint256",
					"name": "",
					"type": "uint256"
				}
			],
			"stateMutability": "view",
			"type": "function"
		},
		{
			"inputs": [],
			"name": "global1",
			"outputs": [
				{
					"internalType": "address",
					"name": "",
					"type": "address"
				}
			],
			"stateMutability": "view",
			"type": "function"
		},
		{
			"inputs": [],
			"name": "global2",
			"outputs": [
				{
					"internalType": "uint256",
					"name": "",
					"type": "uint256"
				}
			],
			"stateMutability": "view",
			"type": "function"
		},
		{
			"inputs": [],
			"name": "global3",
			"outputs": [
				{
					"internalType": "uint256",
					"name": "",
					"type": "uint256"
				}
			],
			"stateMutability": "view",
			"type": "function"
		},
		{
			"inputs": [],
			"name": "val",
			"outputs": [
				{
					"internalType": "uint256",
					"name": "",
					"type": "uint256"
				}
			],
			"stateMutability": "view",
			"type": "function"
		}
	]
}